:020000040800F2
:10000000900900204D010008550100085701000823
:10001000590100085B0100085D01000800000000B4
:100020000000000000000000000000005F01000868
:10003000610100080000000063010008CD190008FC
:1000400067010008670100086701000867010008F0
:1000500067010008670100086701000867010008E0
:1000600067010008670100086701000867010008D0
:1000700067010008670100086701000867010008C0
:1000800067010008670100086701000867010008B0
:100090006701000800000000000000006701000880
:1000A0006701000867010008670100086701000890
:1000B0006701000867010008670100086701000880
:1000C0006701000867010008670100086701000870
:1000D0006701000867010008670100086701000860
:1000E00067010008670100080000000067010008C0
:1000F0006701000867010008670100086701000840
:10010000670100086701000867010008670100082F
:10011000670100086701000867010008670100081F
:10012000670100086701000867010008670100080F
:10013000DFF80CD000F03CF8004800471D1E000816
:100140009009002080F3088862B608470648804777
:1001500006480047FEE7FEE7FEE7FEE7FEE7FEE7AC
:10016000FEE7FEE7FEE7FEE7D119000831010008CF
:10017000D2B201E000F8012B491EFBD270470022E9
:10018000F6E710B513460A4604461946FFF7F0FF96
:10019000204610BD30B504460020034600E05B1C3D
:1001A000934203D2E05CCD5C401BF8D030BD000030
:1001B0001CB509480090094801900546009C06E0DE
:1001C000E06840F0010394E8070098471034AC421F
:1001D000F6D3FFF7B1FF0000FC2000081C21000847
:1001E0002DE9F0439DB00DF12C0942F21408484668
:1001F0004821C4F20208FFF7C2FF01AC20462821C3
:10020000FFF7BDFF40F22310C4F2675048F80C0C12
:1002100048F6AB10CCF6EF5048F80C0C42F63B20F9
:10022000C0F6190048F8080C46F67F60C4F65D4039
:1002300048F8080C44F25100C5F67F50C8F878021F
:1002400042F26370C4F2CE6042F25401C8F8780200
:100250000020C0F600014FF6FF7200BF51F82030B9
:100260006FF002061D68AFB287EA1547974203D0C8
:100270000136F7D302E000BF49F82050974240F022
:10028000978001301228E9D1DDE90B0100226FF3DC
:100290001F3061F31B409DF83410C0F6FF72CDE9AA
:1002A0000101DDE90E0102F1805200F00F0061F35F
:1002B00014401099039011986FF3DF2102EA004077
:1002C00008440490DDE912011A9A6FF3DF2061F30C
:1002D0001A400590DDE914011B9B00F03F0061F31B
:1002E000154006901698189900F03F000790BDF849
:1002F0005C006FF31F3340EA0140BDF864100890C2
:1003000041EA024009901C9842F2C40160F31B4389
:1003100042F29C000022C0F60000C0F600010A93E1
:1003200003E000BF01320A2A0FD050F822301D68C6
:1003300051F8226054F822703540AF42F2D01D6867
:1003400025EA060637431F60ECE7D8F8EC2142F0B7
:100350000102C8F8EC2100BF00BF00BF00BF00BF12
:1003600000BF00BF00BF00BF00BFD8F8EC2122F0E3
:100370000102C8F8EC21002250F822301B6851F825
:10038000227054F822603B409E4211D101320A2A69
:10039000F2D1D8F8000040F08040C8F80000D8F84A
:1003A000000040F00040C8F800001DB0BDE8F08338
:1003B00001F022FD002804BF002070472DE9F04322
:1003C00081B0804601F002F9002847D04FF20004C6
:1003D000CFF6FF7404F5012001F00AFB00283DD0A0
:1003E00004F58054B4F5AE2FF4D348F2000947F673
:1003F000FF6400274FF0FF35C0F60009C0F2050486
:1004000007EB0906284631464FF4807200F06AFF78
:10041000054607F5002031464FF4807201F060FC7C
:10042000E0B1A74207F58077EAD9E843C8F80000B1
:100430006A464FF400204FF4B02100F073FF68B11A
:100440000098D8F80020904208D14FF400204FF4D3
:10045000B02101F0D7F801B0BDE8F083002001B071
:10046000BDE8F0832DE9F0418846A8B148F20004C8
:10047000054600274FF0FF30C0F60004EE1BB6F52E
:10048000807F28BF4FF480763919324600F02AFF6A
:100490003744AF42F2D301E04FF0FF3080EA08006A
:1004A0000130B0FA80F04009BDE8F08148F2000C5C
:1004B000C0F6000C4EF2100EDCE90001EFF31082E2
:1004C00072B6CEF2000E00224FF0FF33CEF80020BD
:1004D000CEF80420CEF808200EEB82040132082A60
:1004E000C4F87031C4F87032F6D14EF60452CEF230
:1004F00000024FF020631360C2F804C0FFF722FE31
:10050000FEE700002DE9F04F89B0002791460D4627
:100510008346CDE90777CDE90577CDE90377CDE9C6
:10052000017701F06FF818B100F060FA20B10027F0
:10053000384609B0BDE8F08F4FF4805048F2000A09
:1005400002900B20C0F6000A089002A801A9CDF87D
:100550001CA000F077F88046D0BBCDB340F28407F2
:100560000026C2F2000700BFAC1B4FF48070B4F548
:10057000807F28BF044638464FF48071FF22FFF782
:10058000F7FD06EB0B003946224601F0F9FA70B38D
:10059000002000BF395CFF2904D10130B0F5807F15
:1005A000F8D106E006EB0A0101203A4600F0AEF968
:1005B000E8B906EB0A0039464FF48072FFF7EAFD0E
:1005C000A8B9B8F1000F03D106F58076AE42CBD3BF
:1005D00000F090F9B8F1000FA9D100F0F7FF002862
:1005E000A5D028464946FFF73DFF0746A0E700F0A3
:1005F00081F99CE710B5026A04464FF400204FF4DD
:10060000B021FFF77FFF002804BF002010BD0521A7
:100610002046E160BDE8104001F074B8B0B5044672
:1006200000F0D2FA054640F20400C2F20000007861
:10063000611C18BF044400BF00F0C6FA401BA04272
:10064000FAD3B0BD2DE9F04F81B040F26C0BC2F28D
:10065000000B9BF80020012A03D1022001B0BDE865
:10066000F08F8846016805460120B1F5006F8BF8D0
:10067000000018DA02292ED0042940F0298142F224
:100680001004C4F2020400F09FFA00F57A7600BF6D
:100690002068C50348D500F097FAB042F8D3002D82
:1006A00000F1158146E02AD0B1F5805F40F010815D
:1006B00042F21007C4F2020700F086FA00F57A76DB
:1006C0003868C40352D500F07FFAB042F8D3002C4A
:1006D00000F1FD8050E042F21007C4F2020700F082
:1006E00073FA00F57A7600BF3868C4037AD500F053
:1006F0006BFAB042F8D3002C00F1E98077E042F2C7
:100700001007C4F2020700F05FFA00F57A7600BF26
:100710003868C40340F1A38000F056FAB042F7D322
:10072000002C00F1D4809FE048F211002060002DE1
:1007300000F1CD800020CBF80400606844F2213144
:1007400040F0040060604FF00060C1F234210160AD
:1007500000F03AFA00F57A752068C00340F1C180D4
:1007600000F032FAA842F7D30320BEE048F21100AD
:100770003860002C00F1AB804FF0FF30C8F800006B
:10078000D5E9054004EBC030844280F0A0804FF0F2
:10079000FF0900BF786840F480507860C4F800908A
:1007A00000F012FA00F57A7A3868C60306D500F030
:1007B0000BFA5045F8D3032004E000BF48F21100C3
:1007C000386000207968002E21F48051796000F1B2
:1007D0008580D5E9051204F5004401EBC2318C4255
:1007E000D8D375E048F211003860002C6FD44FF078
:1007F000FF30C8F80000D5E9014004EB0020844236
:1008000065D24FF0FF0A00BF0020CBF804007868E3
:1008100040F002007860C4F800A000F0D5F900F5BF
:100820007A7900BF3868C60306D500F0CDF948458F
:10083000F8D3032004E000BF48F211003860002024
:100840007968002E21F00201796047D4D5E90112C0
:1008500004F5807401EB02218C42D5D338E048F2D4
:1008600011003860002C32D44FF0FF30C8F800007F
:10087000D5E9034004EBC020844228D24FF0FF09A1
:10088000786840F400607860C4F8009000F09CF94B
:1008900000F57A7A3868C60306D500F095F9504518
:1008A000F8D3032004E000BF48F2110038600020B4
:1008B0007968002E21F4006179600FD4D5E9031224
:1008C00004F5006401EBC2218C42D9D300E0012081
:1008D00000218BF8001001B0BDE8F08FC8F800408F
:1008E000F6E748F2110020600020616821F0040161
:1008F0006160EDE742F21400C4F20200016841F0C9
:10090000004101600068C043C00F70472DE9F0430B
:1009100081B040F26C04C2F200042078012803D1B7
:10092000022001B0BDE8F08301200B06207002D048
:1009300001B0BDE8F08342F2140588469146C4F246
:10094000020500F041F900F57A7700BF55F8040C74
:10095000C60307D500F038F9B842F7D30320002EBC
:1009600007D53EE048F2110045F8040C0020002EA7
:1009700037D42868494640F001002860EFF3108022
:10098000EFF3108372B64246002303E004323F2B9C
:100990003B460AD251F8046B5F1C3F2F1660F5D11D
:1009A0002E6846F400262E60F0E780F3108800F0F1
:1009B0000BF900F57A7700BF55F8040CC60305D58E
:1009C00000F002F9B842F7D3032004E048F2110026
:1009D00045F8040C00202968002E21F0010129604F
:1009E000A6D40021217001B0BDE8F08342F20800D6
:1009F000C4F20200C168B1F1FF3FC4BF00207047DC
:100A000040F22311C4F26751016048F6AB11CCF6F5
:100A1000EF510160C068C00F704700000A68002AEB
:100A200008BF70472DE9F04F83B000F1200341F279
:100A30000006019300F13844C4F60006072340F293
:100A4000004E4FEAB425B04208BF0423C4F2010EA1
:100A5000042D38BF4FEAB42300244FF0010C0026C8
:100A6000002700930AE000BF0A68013732FA07F353
:100A700006F1040604F1020400F09C800CFA07FA67
:100A800012EA0A08F0D04A6842F01002122A16D17F
:100A90006FF00302DDF804C002EA57025CF802B00E
:100AA00006F01C030F25D1F810909D402BEA050598
:100AB00009FA03F32B434CF802304FF0010C0322E8
:100AC000036802FA04F54A686FEA050BAB4302F0CB
:100AD0000305A5402B43122A036013D80CFA02F336
:100AE00013F0061F0ED08368CD6803EA0B03A54000
:100AF0002B4383604368C2F3001523EA0A03BD4019
:100B00002B434360C3688D6803EA0B03A5402B4366
:100B1000D200C360A8D541F21803C4F202031A68D8
:100B20004FF6144A42F001021A601A68CFF6FF7AB3
:100B300002F001020292029A27F00302724452F874
:100B40000A9006F00C050F23AB4029EA030C009B2A
:100B500003FA05F545EA0C0342F80A30DEF8009086
:100B60004B6849EA0805DA0358BF29EA0805CEF8B8
:100B70000050DEF804909A0349EA080558BF29EAB4
:100B80000805CEF80450DEF80890DA0249EA0805B4
:100B900058BF29EA0805CEF80850DEF80C204FF0BF
:100BA000010C42EA08059B0258BF22EA0805CEF86C
:100BB0000C5059E703B0BDE8F04F70471823002AE6
:100BC00008BF2823C150704740F28810C2F20000CD
:100BD0000068704740F2040040F28811C2F2000041
:100BE000C2F2000100780A681044086070470000F3
:100BF00080B5042000F05EF8032000F005F800F056
:100C00002BF8002080BD0000B0B540F20402C2F213
:100C1000000240F200011278C2F200014FF47A7330
:100C20000968B3FBF2F20446B1FBF2F1084600F0AA
:100C300043FB072C4FF001050CD858B94FF0FF309B
:100C400021460022002500F009F840F20800C2F217
:100C5000000004602846B0BD7047000010B54EF695
:100C60000C5CCEF2000CDCF80030C3F3022E8EF0E8
:100C70000704032C28BF0324BEF104034FF0FF3EFA
:100C80000EFA04F438BF0023A14399400EFA03F38F
:100C90009A43114300F1604200F00F03490102F54D
:100CA0006442043B6344002848BF03F10C02117006
:100CB00010BD00004EF60C51CEF200010A684FF64E
:100CC000FF031A4060F30A2242F0806040F0FD709A
:100CD00008607047002804BF012070474168B1F5E3
:100CE000827F1CBF0021C1612DE9F047002585628C
:100CF00090F8551029B980F85450044600F052F885
:100D00002046022180F855100168C3680A68B3F5CF
:100D1000E06F22F040020A6098BF012543F40062B0
:100D2000B2F5706F4FEA053C1CBF00258562D0E923
:100D30000154D0E9042E05F4827A03F4006304F42C
:100D40000449534402F00208D0E906674B440EF010
:100D5000010E434406F40072046A734407F0380736
:100D6000856A1A4404F080043A4405F4005522438D
:100D70002A430A600422436A02EA164203F400434B
:100D800042EA0C021A444A60CA6922F40062CA614B
:100D900000210122816580F85520BDE8F047084612
:100DA00070470000704700002DE9F04381B0044611
:100DB00040681D461746B0F5827F0E4602D1A068F6
:100DC000002869D094F85400012803D1022001B012
:100DD000BDE8F0834FF0010984F85490FFF7F4FE6A
:100DE00094F85510012955D18046002E4FF001008E
:100DF00018BF002F00F08580042084F855000020E3
:100E0000A065A663A787E7872063A086E0862168A0
:100E1000C4E91100D4E902204B68B0F5E06F23F477
:100E2000805398BF03F58053B2F5004F4B6008D153
:100E300021680A6822F040020A600A6822F48042AF
:100E40000A6021680A68520603D40A6842F0400228
:100E50000A60E18FB0F5E06F2BD8002944D06E1CFA
:100E60000BE000BF007BA16B0870A06B0130A0639A
:100E7000E08F0138E087E08FB0B320688168C90750
:100E8000F0D1FFF7A1FE002EF5D0A0EB0800A8429C
:100E9000F1D327E0022034E0042084F855002046F6
:100EA000314632463B46009500F006F901B0BDE8F8
:100EB000F083C9B16E1C09E0C068A16B21F8020B78
:100EC000A163E08F0138E087E08F68B12068816816
:100ED000C907F1D1FFF778FE002EF5D0A0EB08008E
:100EE000A842F1D303200CE020462946424600F0F8
:100EF00069FC00281CBF2020A065A06D002818BF39
:100F00000120002184F8559084F8541001B0BDE808
:100F1000F08300002DE9F04381B0044690F85400BE
:100F2000012803D1022001B0BDE8F0834FF0010891
:100F30001D460F46164684F85480FFF745FE94F888
:100F4000551001295DD18146002F4FF0010018BFD7
:100F5000002E00F0A880032084F855000020A06532
:100F60002763A686E686A063A087E087A26831464D
:100F7000B2F5004FC4E9110008D12068026822F0E0
:100F800040020260026842F4804202602068026807
:100F9000520603D4026842F04002026062680139DE
:100FA000E368B2FA82F2B1FA81F152094909B3F564
:100FB000E06F41EA020126D931B137F8021BC16066
:100FC0002763E08E0138E086E08E002841D06F1C58
:100FD0000AE000BF216B31F8022BC2602163E08E72
:100FE0000138E086E08EA0B3206881688907F1D4DB
:100FF000FFF7EAFD002FF5D0A0EB0900A842F1D3DE
:1010000025E002204FE039B139780173206B0130BF
:101010002063E08E0138E086E08ED0B16F1C0AE0DC
:10102000216B09780173206B01302063E08E013859
:10103000E086E08E68B1206881688907F0D4FFF708
:10104000C3FD002FF5D0A0EB0900A842F1D3032087
:1010500029E020464FF4C0512A464B4600F0E8FBF9
:1010600068B9204629464A4600F056FC38B9204661
:101070004FF4C0612A464B4600F0DAFB28B1A06D60
:1010800040F02000A0652020A065A06838B90020AD
:1010900000902068C1680091806800900098A06D61
:1010A000002818BF0120002184F8558084F85410CE
:1010B00001B0BDE8F08300002DE9F04381B00446A3
:1010C00090F85400012803D1022001B0BDE8F0835C
:1010D00001201E4615460F4684F85400FFF774FDA4
:1010E00094F855108146012973D1002F4FF001006B
:1010F00018BF002D00F0D580002E00F0D28094F8AB
:10110000550004281CBF052084F855000020A06568
:10111000A563E687A6872763E686C4E911002068F1
:10112000A686E1684268B1F5E06F22F4805298BF6C
:1011300002F5805242600268520603D4026842F00F
:10114000400202606268731EB2FA82F2B3FA83F35D
:10115000DDF8208052095B09B1F5E06F43EA020136
:1011600046D931B137F8021BC1602763E08E0138E0
:10117000E086012608F10105E08E10B9E08F002815
:1011800072D02068816889070CD5E18E51B1012E9B
:1011900008D1216B002631F8022BC2602163E18E59
:1011A0000139E1868168C9070AD0E18F41B1C06881
:1011B000A16B012621F8020BA163E08F0138E087C3
:1011C000FFF702FD002DD7D0A0EB09004045D3D397
:1011D00048E06068B0F5827F08D104294FF0020032
:1011E0005FD1A16800293FF480AF5AE0022058E0A7
:1011F00039B139780173206B01302063E08E0138FA
:10120000E086012608F10105E08E08B9E08F58B3A9
:101210002068816889070DD5E18E59B1012E09D169
:10122000216B002609780173206B01302063E08E6A
:101230000138E08620688168C9070BD0E18F49B189
:10124000007BA16B01260870A06B0130A063E08FCA
:101250000138E087FFF7B8FC002DD5D0A0EB0900DE
:101260004045D1D303201CE020464FF4C0514246F4
:101270004B4600F0DDFA68B9204641464A4600F088
:101280004BFB38B920464FF4C06142464B4600F054
:10129000CFFA78B1A06D40F02000A0652020A065B5
:1012A0000120012184F85510002184F8541001B068
:1012B000BDE8F0830020F4E7411E0020B0EB116F81
:1012C0001CBF012070474EF21002CEF200025160A6
:1012D0004EF62351CEF20001E0230B7007219060FF
:1012E00011607047002A08BF7047B0B548F2203E31
:1012F0004FF0000CCEF6B85E11F80C3058400023C9
:101300008EEA5004C50708BF44082046072B03F1A6
:101310000103F5D30CF1010C9445EDD1BDE8B040CB
:10132000704700002DE9F047C0B081460020B0EBC7
:10133000596F36D18A46A1B3904692B3C9F1007174
:101340008A452ED848F220344FF0FF356F46CEF64E
:10135000B85400BF5646BAF5807F28BF4FF4807658
:1013600048463946324600F00BFCE8B1002000BF89
:10137000395C4D40002100BF2A4684EA5505D30759
:1013800008BF5508072901F10101F5D30130B0422A
:10139000EED1BAEB060AB144DCD1E843C8F800004C
:1013A000012040B0BDE8F087002040B0BDE8F087E4
:1013B000002804BF002070472DE9F04794B0044690
:1013C00000F0D8FB002800F080800AAD40F202084F
:1013D00044F655694FF4801029462822CFF203487D
:1013E000C5F6490900F0CCFBC8B30A984FF0000AD3
:1013F000484536D10B98012833D10E98404530D15D
:101400000D98083810F1070F2BD310986FF4B02106
:10141000084448F20701CFF6FA71884221D348F216
:1014200020324FF0FF300021CEF6B8526B5C5840AE
:10143000002300BF064682EA5000F70708BF700885
:10144000072B03F10103F5D301312429EED11399C0
:1014500048400130B0FA80F04FEA501A01E04FF0F6
:10146000000A41F200006D46C0F210002946282211
:1014700000F086FBC8B1009848454FF0000015D138
:101480000199012912D1049941450FD103980838D7
:1014900010F1070F09D306986FF4B021084448F201
:1014A0000701CFF6FA7188422DD200204AEA0001E6
:1014B000C9070AD0BAF1000F0BD020B10C980299DD
:1014C000401A002805DD0AA804E0002014B0BDE899
:1014D000F0876846D0E900E8D0E90237D0E9046532
:1014E000D0F818C0D0E90821C069C4E90821C4E9CE
:1014F00006C00120C4E900E8C4E90237C4E9046574
:1015000014B0BDE8F08748F220324FF0FF300021E0
:10151000CEF6B8526B5C5840002300BF074682EA03
:101520005000FE0708BF7808072B03F10103F5D32D
:1015300001312429EED1099948400130B0FA80F0F8
:101540004009B3E7016844F65562C5F64902914285
:1015500017D14168012914D101690222CFF2034257
:1015600091420ED1C168083911F1070F09D3816981
:101570006FF4B022114448F20702CFF6FA7291429A
:1015800001D20020704710B548F2203E4FF0FF31E5
:101590004FF0000CCEF6B85E10F80C20514000223F
:1015A0000B468EEA5101DC0708BF5908072A02F1F1
:1015B0000102F5D30CF1010CBCF1240FECD1406A0F
:1015C00048400130B0FA80F0400910BD48F20001F7
:1015D000C0F600010A6802F16040B0F5803F4FF0AC
:1015E00000000ED812F0070218BF704748680022AA
:1015F000A0F10061A1F50041B1F5B02F38BF012283
:10160000104070472DE9F047C2B082466FF40020C9
:101610001AEA000F4FF0000070D147F6F8738946C0
:101620000839C0F20503994268D890466946504689
:10163000082200F0A5FA002854D0009901F160407A
:10164000B0F5803F4FF0000058D811F0070155D198
:10165000019A48F20003C0F600039A424ED312F0FA
:1016600001074BD022F0010009EB030290424FF03A
:10167000000043D24146B0EB5A6F3AD1B9F1000FA6
:1016800037D0CAF10072914533D848F220354FF077
:10169000FF3402AECEF6B8554F46B9F5807F28BF6D
:1016A0004FF48077504631463A4600F069FAE8B187
:1016B000002000BF315C4C40002100BF224685EA7B
:1016C0005404D30708BF5408072901F10101F5D3D9
:1016D0000130B842EED1B9EB0709BA44DCD1E2439C
:1016E000012004E0002042B0BDE8F0870020414620
:1016F000FFE7511AB1FA81F14909084042B0BDE84B
:10170000F0870000002804BF0020704770B594B037
:10171000064600F02FFA00284CD00AA8FFF748FE32
:10172000002844F655604FF00102C5F649000C99B7
:10173000C6E9000218BF4A1C0220B260CFF2034083
:1017400048F2203230614FF0FF300021CEF6B8521F
:10175000735C5840002300BF054682EA5000EC0746
:1017600008BF6808072B03F10103F5D301312429D1
:10177000EED1B168C0437062C8074FF4801504BF52
:1017800041F20005C0F21005284600F031F988B199
:1017900028463146282200F0A3FA58B16946284667
:1017A000282200F0EDF928B1694630462822FEF7DC
:1017B000F1FC10B1002014B070BD6846FFF7C2FE06
:1017C00014B070BD70B5044640681546B0F5827F10
:1017D0000E460BD1A068B0F5004F02D0B0F5806F77
:1017E00004D12068016821F04001016020463146A3
:1017F0002A4600F091F828B1A06D40F02000A065C5
:10180000032070BD6068B0F5827F0FD1A068B0F58D
:10181000004F02D0B0F5806F08D120464FF4C06170
:1018200032462B4600F004F80028E5D1002070BDB8
:101830002DE9F04F83B04FF000091E4690460D464B
:1018400083468DF80790FFF7BFF9301A00EB0807C1
:10185000FFF7BAF940F20001C2F200010968232241
:101860005143090DDBF800A079430291DAF8081022
:1018700029424DD0064608F1010404E0DBF80000DF
:101880008068284217D0B5F5C06F05D19AF80C00D2
:101890008DF807009DF80700002CEFD0FFF794F9B2
:1018A000801BB8420AD202980299002808BF074656
:1018B000481E0290E2E74FF0000929E0DBE9000151
:1018C0004268B1F5827F22F0E00242600BD1DBF882
:1018D0000810B1F5004F02D0B1F5806F03D1016857
:1018E00021F040010160DBF82810B1F5005F07D15D
:1018F000016821F400510160016841F40051016068
:1019000001208BF8550000208BF854004FF003099C
:10191000484603B0BDE8F08FF0B581B015460E46DD
:101920000446FFF751F9281A8719FFF74DF940F2DD
:101930000001C2F200010968C1F3CB317943009183
:1019400021688968090602D4002001B0F0BD05466F
:10195000013603E0206880680006F5D5002EF9D036
:10196000FFF732F9401BB84207D2009800990028CF
:1019700008BF0746481E0090ECE7D4E90001426822
:10198000B1F5827F22F0E00242600AD1A168B1F590
:10199000004F02D0B1F5806F03D1016821F0400102
:1019A0000160A16AB1F5005F07D1016821F400511F
:1019B0000160016841F400510160012084F8550084
:1019C000002084F85400032001B0F0BDFFF702B9F5
:1019D00080B5FEF705FC4EF68850CEF20000016897
:1019E00041F4700101604FF0006140F8801C80BD3F
:1019F00001460020B0EB516F5BD140F28412C2F27D
:101A000000021278D20708BF7047F0B583B0642097
:101A10000E4600F019F9002847D040F20044C4F601
:101A2000000406208DF80B0020464FF48051002260
:101A30000027FFF7C3F840F21000C2F200000DF1DA
:101A40000B0101226423FFF765FA054620464FF497
:101A500080510122FFF7B2F83DBB21208DF806002E
:101A6000300E8DF80700300C8DF80800F02000EAE9
:101A700016208DF8090020464FF4805100228DF881
:101A80000A70FFF79BF840F21000C2F200000DF15F
:101A9000060105226423FFF73DFA054620464FF470
:101AA00080510122FFF78AF825B1002003B0BDE87C
:101AB000F040704741F2883000F0C6F8F6E70000C9
:101AC00070B582B040F200449F2040F28416C4F604
:101AD00000048DF807000020C2F200068DF8060011
:101AE000ADF80400307020464FF480510122FFF71A
:101AF00065F80120FEF792FD20464FF48051002248
:101B0000FFF75CF840F21000C2F200000DF107018F
:101B100001226423FFF7FEF930B120464FF48051D3
:101B20000122FFF74BF810E040F21000C2F2000073
:101B300001A903226423FFF737F9054620464FF435
:101B400080510122FFF73AF815B1002002B070BDB4
:101B50009DF80400FF3810F1FE0F4FF0000007D38E
:101B60009DF80610192903D1642000F06DF830703B
:101B700002B070BD40F28410C2F2000000787047DD
:101B80002DE9F04782B00027B7EB506F57D11446CC
:101B9000002A54D000290D461FBF40F28411C2F222
:101BA000000109785FEAC17149D0C0F100718C422F
:101BB00045D813218DF80310010E40F200488DF82E
:101BC0000410010CC4F600088DF80510010A8DF808
:101BD00006108DF8070040464FF480510022FEF7B2
:101BE000EDFF40F21000C2F200000DF103010522EA
:101BF0006423FFF78FF918B1B0FA80F0470918E0B5
:101C000040F210094FF6FF7AC2F200094FF6FF7654
:101C1000544538BF26464846294632466423FFF7D6
:101C2000C3F8B0FA80F14FEA511710B9A41B35443C
:101C3000ECD140464FF480510122FEF7BFFF3846F9
:101C400002B0BDE8F08700002DE9F04F81B040F20E
:101C5000004A0546C4F6000AFEF7B6FF40F2100738
:101C600006464FF0050BC2F200070DF103080DF117
:101C7000020900BF50464FF4805100228DF803B096
:101C8000FEF79CFF3846414601226423FFF742F9E4
:101C9000B8B93846494601226423FFF785F804465F
:101CA00050464FF480510122FEF788FF7CB99DF821
:101CB0000200C0070FD0FEF787FF801BA842D9D3D0
:101CC00005E050464FF480510122FEF777FF0020D7
:101CD00001B0BDE8F08F012001B0BDE8F08F000039
:101CE0002DE9F04F83B00027B7EB506F0ED11446AB
:101CF00062B10E4600291FBF054640F28410C2F2B1
:101D00000000007818BF5FEAC07003D1384603B006
:101D1000BDE8F08FC5F100708442F7D840F2004B67
:101D200040F21008C4F6000BC2F20008E8B2C0F599
:101D3000807A6420544538BFA246FFF785FF00280B
:101D400057D006208DF80B0058464FF480510022E2
:101D50000027FEF733FF40460DF10B0101226423FB
:101D6000FFF7D8F8814658464FF480510122FEF71C
:101D700025FFB9F1000FC9D112208DF80600280EF9
:101D80008DF80700280C8DF80800280A8DF8090046
:101D900058464FF4805100228DF80A50FEF70EFF8E
:101DA00040460DF1060105226423FFF7B3F8D0B9D0
:101DB0001FFA8AF2404631466423FFF7ABF8074624
:101DC00058464FF480510122FEF7F8FE8FB94FF4C8
:101DD000FA70FFF739FF60B15544B4EB0A0456447A
:101DE000A4D1012792E758464FF480510122FEF713
:101DF000E5FE00278AE700004EF60C50BFF34F8F38
:101E0000CEF200000168042201F4E061C0F2FA524F
:101E100011430160BFF34F8F00BFFDE78CB041F26B
:101E200034040027C4F202040597CDE90377CDE915
:101E30000177206840F2004840F0080020602068E8
:101E4000C4F6000800F008000B900B98206808F515
:101E5000806540F01000206020684FF4005100F0D1
:101E600010000B900B98284601224FF400590126D0
:101E7000FEF7A4FECDE9019601AE28463146CDE934
:101E80000377FEF7CBFD40464FF4805101224FF41B
:101E90008055FEF793FE404631460195FEF7BEFDA4
:101EA000FEF7A6FE42F2EC00C0F6000000785828CB
:101EB00040F080800597CDE90377CDE90177206870
:101EC00001A940F008002060206800F008000B9095
:101ED0000B9854F8180C40F4804044F8180C54F84F
:101EE000180C00F480400B900B984FF46040019068
:101EF000022002900490032005904046FEF78EFDDC
:101F000040F2100043F60001C2F20000C4F20001EA
:101F10004FF482724FF4E0634FF40076082580E8B6
:101F2000860007210762C0E90337C0E90576C5616D
:101F3000C0E90A71FEF7CEFE00283DD1FFF7C0FDD3
:101F4000002839D001AC2046FFF732FA0546FFF7EA
:101F50003DFB002D31D004990139062966D8DFE810
:101F600001F0041B61565A64640000285ED0DDE96C
:101F7000071205460020FFF745FB002857D004F163
:101F80002000FEF717FA002851D00220049001A883
:101F9000FFF7B8FB002849D00799089A0020FEF700
:101FA000B1FA00283ED00320049001A8FFF7AAFB55
:101FB00037E000BFFEE700BFFEE7B8B348F200021B
:101FC000C0F600024EF21003D2E90001EFF31087D1
:101FD00072B6CEF2000300274FF0FF361F605F603D
:101FE0009F6000BF03EB87050137082FC5F87061BC
:101FF000C5F87062F6D14EF60453CEF200034FF0EE
:1020000020671F605A60FEF79DF800BFFEE748B1E9
:10201000DDE9070103E028B109994FF4B020FEF78C
:1020200021FA30B901A8FEF7E5FA10B9FEE7002D54
:10203000FCD0FEF73BFA02E008C8121F08C1002AD4
:10204000FAD170477047002001E001C1121F002A39
:10205000FBD170471051FF1F1451FF1F1851FF1F74
:102060004851FF1F4C51FF1F0056FF1F0456FF1F12
:102070000052FF1F0452FF1F4051FF1F4451FF1F1A
:102080000852FF1F2051FF1F2451FF1F2851FF1F1F
:102090002C51FF1F3051FF1F3451FF1F08220240F7
:1020A0000C22024020220240282202402422024028
:1020B0001C2202402C220240102202401422024024
:1020C00018220240FF0FFF0FFF0000000F001F004B
:1020D000FF07FF1FFF07FF073F003F003F00000013
:1020E000FFFFFFFFFFFFFFFFFF0FFF0F58494E5F8E
:1020F000504F5745525F424C5F5631002021000837
:1021000000000020100000003620000830210008E8
:102110001000002080090000462000080000000098
:1021200000127A000100000008000000000000001A
:1080000050D8002045810008653301080515010896
:1080100061330108E18C0008A1A301080000000001
:108020000000000000000000000000007D5E01086C
:1080300099CF000800000000013B0108FD65010820
:108040005F8100085F8100085F8100085F81000890
:108050005F8100085F8100085F8100085F81000880
:108060005F8100085F8100085F810008D5A20008D9
:10807000E1A20008EDA200085F8100085F8100080E
:108080005F8100085F8100085F8100085F81000850
:108090005F81000800000000000000009DCF000884
:1080A0005F8100085F8100085F8100085F81000830
:1080B0005F8100085F8100085F8100085F81000820
:1080C0005F8100085F8100085F8100085F81000810
:1080D0005F81000889A3010895A301085F8100085A
:1080E0005F8100085F810008000000005F810008D8
:1080F0005F8100085F8100085F8100085F810008E0
:108100005F8100085F8100085F8100085F810008CF
:108110005F8100085F8100085F8100085F810008BF
:108120005F8100085F8100085F8100085F810008AF
:10813000DFF80CD000F018FB00480047A5B7010895
:1081400050D800200648804706480047FEE7FEE773
:10815000FEE7FEE7FEE7FEE7FEE7FEE7FEE7FEE7F7
:1081600001660108318100082DE9F05F0546002015
:1081700092469B4688460646814640241BE0284698
:1081800041464746224600F04DFA53465A46C01A29
:10819000914110D311461846224600F034FA2D1AA8
:1081A00067EB01084F4622460120002100F02BFA20
:1081B00017EB00094E41201EA4F10104DFDC484604
:1081C00031462A464346BDE8F09F2DE9F0410024A0
:1081D000061B254671F1000605DA01240027D0EBC5
:1081E000070067EB0101161E73F1000605DA002790
:1081F000D2EB0702012567EB0303FFF7B5FF8646C5
:108200000E4617469C46AC4204D00025D0EB050E26
:1082100065EB010624B10020D2EB000760EB030CF4
:10822000704631463A466346BDE8F08100487047E3
:1082300088C3010810B50446FFF7F8FF0068005D29
:1082400000F0010010BDA0F16101192900D820380B
:10825000704710B5431A934209D28318881803E077
:1082600010F8011D03F8011D521EF9D210BD40EA9D
:1082700001039B0703D009E008C9121F08C0042AA4
:10828000FAD203E011F8013B00F8013B521EF9D28B
:1082900010BDD2B201E000F8012B491EFBD270479D
:1082A0000022F6E710B513460A4604461946FFF7C2
:1082B000F0FF204610BD10B5044604E00B7800F82E
:1082C000013B03B1491C521EF8D2204610BD421C8E
:1082D00010F8011B0029FBD1801A704710B500224D
:1082E00000E0521C835C8C5CA34201D1002BF8D1CE
:1082F000D8B2E1B2401A10BD30B5044600200346A2
:1083000000E05B1C934203D2E05CCD5C401BF8D0E4
:1083100030BD30B505460020034600E05B1C9342AB
:1083200005D2EC5CC85C201A01D1002CF6D130BD1E
:108330000FB400B58DB010A909900B9000914FF0CB
:10834000FF300A9000200C900548069005480790E1
:108350006A4609A80F9900F089F90DB05DF814FB81
:1083600089860008A78600082DE9FF5F1D464FF0AB
:10837000FF3BD5E9014691465F464FF00008A969E9
:108380007F1C01988847296A824688470028F6D1D1
:10839000BAF1FF3F0CD024F4C064002E19DD600652
:1083A00014D5BAF12B0F09D0BAF12D0F0ED103E07D
:1083B000584604B0BDE8F09F44F48064A9697F1C6E
:1083C00001988847761E8246002E02DDBAF1300FF2
:1083D00003D0B9F1000F26D032E0A969761E44F42B
:1083E00000747F1C019888478246002E05DDBAF193
:1083F000780F06D0BAF1580F03D0B9F1000F10D0A2
:108400001EE0B9F1000F02D0B9F1100F18D1A9691F
:10841000761E24F400747F1C019888478246102041
:1084200002E0082000E00A20814609E008FB090874
:10843000A969761E44F400747F1C0198884782461F
:10844000002E05DD4946504600F0FCF80028EDDA24
:10845000E96901988847A00502D46FF00100A8E7F8
:10846000E00725D1600613D5600502D5C8F10000EC
:1084700000E0404629680A1D2A600968220501D5E6
:10848000087015E0220701D5088011E008600FE0B0
:108490002868011D29600068210502D580F8008048
:1084A00006E0210702D5A0F8008001E0C0F80080B6
:1084B00038467EE72DE9FF5FD2E901A74FF00008BB
:1084C000916999461446DDF838B0464601988847C8
:1084D000054659EA0B0005D009E0A169761C019810
:1084E00088470546216A284688470028F5D1681C38
:1084F00003D05FEACA7005D015E04FF0FF3004B03A
:10850000BDE8F09F2068011D2160D0F800800AE0DE
:108510005FEACA7001D108F8015BA169761C7F1E71
:10852000019888470546002F1ADD681C18D0B9F15C
:10853000000F0DD0E81705EBD060421120F01F00AE
:1085400059F822102A1A012090400142E0D107E098
:10855000BBF1000FDCD1216A284688470028D7D01C
:10856000E16901988847BBF1000F07D1002E05DDB6
:108570005FEACA7002D1002188F80010A068B842F2
:1085800003DDBBF1000F03D017B16FF00100B6E7B8
:108590003046B4E72DE9F05F93460F468046044627
:1085A000002613F05FFCD0F80090824614F8015BBF
:1085B0002DB1FFF73BFE0068405DC007F6D12B2DC3
:1085C00002D02D2D1AD0641E0021CAF800105A4680
:1085D0003946204600F078F8014627B13868A042B5
:1085E00001D1C7F80080DAF80000022809D0CAF8E3
:1085F0000090700505D54842BDE8F09F46F48066BE
:10860000E2E70846F8E7202A04DB203A00FA02F104
:10861000002070479140C2F1200320FA03F3194370
:1086200090407047202A04DB203A21FA02F0002112
:10863000704721FA02F3D040C2F120029140084372
:10864000194670473A2800D2303820F02002412ADB
:1086500001D3A2F13700884201D34FF0FF307047B9
:10866000026811441378016018467047D1600449CC
:1086700051610449116200211161114600F08CB86A
:108680006186000835820008426842B1016811F82D
:10869000013B23B1521EC0E9001218467047012168
:1086A000C160881E704742685AB1C368016843B907
:1086B00083688B4205D0491E521CC0E9001200207D
:1086C00070474FF0FF3070472DE9F05F8246007829
:1086D000002715468B460AF10104B946302801D01F
:1086E0009DB113E014F8010B0127782803D0582816
:1086F00001D045B10AE00DB1102D07D1002710259A
:1087000014F8010B02E0082500E00A250026B04617
:108710000EE005FB080005FB06F1012701EB104602
:108720001FFA80F8B6F5803F00D3B94614F8010B64
:108730002946FFF787FF0028EBDABBF1000F05D0D1
:108740000FB1641E00E05446CBF80040B9F1000FB1
:1087500006D013F087FB02210160C81EBDE8F09F20
:1087600048EA0640FAE700001CB5094800900948AD
:1087700001900546009C06E0E06840F0010394E8A3
:10878000070098471034AC42F6D3FFF7D5FC000041
:10879000C46F0208E46F02082DE9F34F8BB04FF06D
:1087A000000801F10C000C464FF0010B46460DF19C
:1087B000080A01906269012101989047051E2DD099
:1087C000252D2CD0216A8847C0B16269012101980A
:1087D0009047216A88470028F7D1411E62690198B5
:1087E000904700E0761CA1690B988847216A88476A
:1087F0000028F7D1E1690B988847DBE7A1690B985E
:1088000088470746A84201D1761CD3E7E1690B9857
:1088100088477F1C02D1B8F1000F6FD046E10027D6
:1088200062693D463946019890472A2804D1626919
:108830000121019890470125DFF8849262690121A6
:1088400001989047A0F130010A290AD24F45E5DC92
:1088500007EB870100EB4107303FDFD445F01005FF
:10886000ECE7E90601D46FF000476C280AD04C28E9
:1088700014D0682815D06A280DD074281CD07A2806
:108880001AD01DE062690121019890476C2802D03E
:1088900045F0040514E045F002050DE045F0200523
:1088A0000AE06269012101989047682802D045F0EA
:1088B000080505E045F400656269012101989047CB
:1088C000C4E9015765283DD019DC58287AD00CDC62
:1088D000452837D004DC252826D0412831D131E085
:1088E00046282FD047282CD12CE05B2877D0612850
:1088F00028D063287CD0642823D15AE0D0E06F28A8
:1089000048D008DC66281DD067281BD0692821D0F4
:108910006E2816D127E0702845D0732868D07528B6
:1089200047D078280DD14DE0A1690B9888470546BE
:1089300025283FF469AFE1690B9888476D1C3FF427
:108940006AAFB3E023466A466FF001000B99AFF3BC
:1089500000809EE045F040006060A80723464FF08D
:10896000000236D43EE0E8077FF447AF2068011DDF
:1089700021600068290501D506701BE7290701D58C
:10898000068017E7A90703D5F117C0E9006111E7D1
:1089900006600FE745F040006060A80723464FF0EF
:1089A000080216D41EE040F60E0125EA01006060C0
:1089B00016E045F040006060A80723464FF00A0229
:1089C00007D40FE045F040006060A80708D52346B3
:1089D00010226FF001000B99AFF3008059E007E01F
:1089E000234610226FF001000B99FFF7BDFC50E009
:1089F0004FF000094F464B46632802D05B2806D053
:108A000040E0E80601D40120A06001273AE0626955
:108A10000121019890475E2805D14FF00109626954
:108A2000494601989047216939B900210A465346C1
:108A300043F82120491C0829FADBB0B3216969B940
:108A4000C11700EBD16253110AEB830122F01F0220
:108A5000821A01200B68904003430B606269012178
:108A6000019890475D28E8D1B9F1000F09D00020A6
:108A7000514651F82020D24341F82020401C0828BC
:108A8000F7DB02AB224600976FF001000B99FFF76E
:108A900011FD00280CDA401C08D1BBF1000F05D0F5
:108AA0004FF0FF300DB0BDE8F08FFFE74046F9E72B
:108AB000E90701D108F1010806444FF0000B79E6FF
:108AC000CCCCCC0CB0B5044600688168C90701D194
:108AD0000020B0BD816821F00101816005F0BAFA83
:108AE000054600BF20688068C007F1D005F0B2FAE3
:108AF000401B0328F6D3E06A40F01000E062206BD0
:108B000040F0010020630120B0BD00002DE9F043DA
:108B10009DB00DF12C0942F2140848464821C4F2D8
:108B20000208FFF7BDFB01AC20462821FFF7B8FB88
:108B300040F22310C4F2675048F80C0C48F6AB1012
:108B4000CCF6EF5048F80C0C42F63B20C0F619006A
:108B500048F8080C46F67F60C4F65D4048F8080CFB
:108B600044F25100C5F67F50C8F8780242F26370B3
:108B7000C4F2CE604CF28C31C8F878020020C0F606
:108B800001014FF6FF7200BF51F820306FF002066E
:108B90001D68AFB287EA1547974203D00136F7D375
:108BA00002E000BF49F82050974240F09780013022
:108BB0001228E9D1DDE90B0100226FF31F3061F3C8
:108BC0001B409DF83410C0F6FF72CDE90101DDE9CC
:108BD0000E0102F1805200F00F0061F31440109971
:108BE000039011986FF3DF2102EA004008440490DB
:108BF000DDE912011A9A6FF3DF2061F31A40059044
:108C0000DDE914011B9B00F03F0061F31540069065
:108C10001698189900F03F000790BDF85C006FF3BC
:108C20001F3340EA0140BDF86410089041EA024059
:108C300009901C984CF2FC3160F31B434CF2D43089
:108C40000022C0F60100C0F601010A9303E000BF54
:108C500001320A2A0FD050F822301D6851F82260E4
:108C600054F822703540AF42F2D01D6825EA06065E
:108C700037431F60ECE7D8F8EC2142F00102C8F856
:108C8000EC2100BF00BF00BF00BF00BF00BF00BF9E
:108C900000BF00BF00BFD8F8EC2122F00102C8F8E5
:108CA000EC21002250F822301B6851F8227054F851
:108CB00022603B409E4211D101320A2AF2D1D8F8FB
:108CC000000040F08040C8F80000D8F8000040F0F4
:108CD0000040C8F800001DB0BDE8F08312F050FD60
:108CE000FEE70000002808BF704710B5044640F2B8
:108CF0000900C2F200000078C0071ED040F20860F0
:108D0000C2F2000000683222C16A514348F21F5289
:108D10003231C5F2EB12A1FB02125109816305F059
:108D200099F940F22C712044C2F20001086040F22F
:108D30002870C2F2000001210170BDE810407047A8
:108D4000F0B581B006F0BCFE00284FF0000441D021
:108D50004DF68361C4F21B31A0FB0112910C44F269
:108D60004022C0F20F02904238BF0121B0FBF1F067
:108D700044F6D352C1F26202A0FB02024E1E100A58
:108D8000022140F20865022888BF110AC2F20005DC
:108D90004F1E2846042107F0E1FF28680121866262
:108DA000C762EF604462846340F20900C2F20000CF
:108DB000017040F22870C2F20000047040F22C7082
:108DC000C2F2000004602846042107F09FFFB0FAB9
:108DD00080F04409204601B0F0BD000040F2287147
:108DE000C2F200010A78012A0FD140F22C72C2F2BD
:108DF00000021268801A48BF704740F20860C2F251
:108E000000000068002282630A70704740F2090186
:108E1000C2F200010028087018BF704740F20860D5
:108E2000C2F2000000680021816340F22870C2F2A3
:108E3000000001707047000070B586B00146002048
:108E40000029CDF81300CDE90300029000F0C580A1
:108E500043F28064C2F200042078012810D143F26A
:108E60007566C2F2000630780D4660B940F20040E7
:108E7000C4F600004FF4807105F0E0F8012802D13B
:108E8000002006B070BD05F0E5F843F27862C2F24A
:108E9000000213680146C01A0A284FF00000C0F013
:108EA0009C80116030708DF8170040F268400526F4
:108EB000C2F200000DF117022A210123009605F0ED
:108EC00093FD50B940F26840C2F2000002AA2A2184
:108ED0000F23009605F086FA88B143F27460C2F25F
:108EE000000001780131CAB28A4208BF01700078DF
:108EF00003284FF0000070D3207006B070BD43F21D
:108F000074609DF80A20C2F200000021017012F086
:108F10000F0228466A7120D09DF80B109DF80C3086
:108F200001F00F0643EA062540F20A039DF80D20E2
:108F3000C2F200039DF80E401E7802F00F03032ECC
:108F400044EA03231DD0022E17D0012E0FBFC5F116
:108F5000EF051E462B46354619E043F27C62C2F20D
:108F6000000212880171028043F27E62C2F20002A6
:108F700012880321428081712EE040F23F16F31ADD
:108F800005E040F23F16761BC3F1EF053346B3F51B
:108F90009F7FC8BF40F23F13EF2D23EAE373A8BFC2
:108FA000EF2525EAE57612093F2903804680027104
:108FB00001D8012105E001F0C001402914BF0221C0
:108FC0000321817143F27C60C2F20000038043F20E
:108FD0007E60C2F200000680012006B070BD000075
:108FE000B0B540F20044C4F6000420464FF40071CE
:108FF0000022002505F028F80A2004F0A5FE2046EE
:109000004FF40071012205F01FF8322004F09CFE9D
:1090100043F27560C2F20000057043F27460C2F260
:109020000000057005F016F843F27861C2F2000105
:10903000086040F26840C2F200002A2105220523A0
:1090400005F0BEF8B0FA80F043F280614009C2F248
:1090500000010870B0BD000043F28060C2F2000061
:109060000078704743F27560C2F200000121017080
:109070007047000040F20A01C2F200010870704718
:10908000B0B543F28064C2F20004207800BB40F225
:109090006840C2F200002A2101220523012505F0C3
:1090A0008FF800284FF0000018BFB0BD43F2756183
:1090B000C2F20001087043F27461C2F2000108704C
:1090C00004F0C8FF43F27861C2F200010860257025
:1090D0000120B0BD43F2A861C2F200014A7E012A1C
:1090E00021D1B0B5D1E9021444F2402281FB000144
:1090F000C0F20F0200230025FFF767F802196FF096
:10910000004041EBE471831A75EB0103BDE8B04008
:10911000B8BF7047D2F100404FF0FF308841A8BF80
:109120004FF000421046704743F2A861C2F20001BE
:109130000A7E012A1FD110B5D1E900244AF220137A
:10914000C0F207030021C2FB003144F24022C0F20A
:109150000F0218460023FFF738F8021941EBE471BB
:109160000029BDE8104008D44FF6FF70131A71F1C2
:109170000001B8BF104680B27047002080B270472F
:10918000F0B597B0044601AF384621465822FFF7A4
:1091900060F8216845F25252DDF858C0C5F6430226
:1091A0000020914216905BD1A08805285AD1208AD0
:1091B00044F69111884255D1E088582852D148F29E
:1091C00020334FF0FF300022CEF6B853B95C484050
:1091D000002100BF054683EA5000EE0708BF68087B
:1091E000072901F10101F5D30132582AEED180EAB5
:1091F0000C0001304FF0000032D1E168B0EB114FAC
:109200002ED14CF2765E04F112024FF0FF354FF092
:10921000000CC0F6010E00241EF8043021FA03F001
:10922000C00712D032F8230068B102EB83067688BB
:10923000BCEB163F07D1002D03D432F82560B042B5
:1092400001D9002003E0012000E004202B4640F07B
:109250000400042806D101340120102C1D46DBD166
:1092600017B0F0BD002017B0F0BD0000002808BF07
:10927000704780B543F2A861C2F200016422FEF794
:10928000E8FF80BD40F21000C2F2000000687047A5
:109290002DE9F04FCDB016AE44F2402B30465821A8
:1092A000FF22C0F20F0BFF25FEF7F3FF684658219F
:1092B000FF22FEF7EEFF43F2A869C2F2000948461A
:1092C0006421FEF7EDFF44F68451C2F20001002054
:1092D000086040F20800C2F20000C9F800B0C9F806
:1092E00008B0057011F03AFE002800F086824EF2B8
:1092F0000007C0F2FF1744F24C1837A938462C2259
:10930000C5F6430811F0F0FE002842D037984045DA
:109310003FD1BDF8E0004FF0000A013801283AD8EB
:10932000BDF8E2002C2836D1BE4637AF8ECF42AD15
:109330008EC5DDE93B120DF1F40CCDE946129CE837
:10934000AC1048F2203048A93446CEF6B850ACC133
:1093500000224FF0FF3342AF4C9200BFBD5C6B4028
:10936000002500BF194680EA5303CE0708BF4B080B
:10937000072D05F10105F5D301322C2AEED183EA40
:109380000C000130B0FA80F04FEA501A26467746BA
:1093900001E04FF0000A07F580502CA92C2211F0B3
:1093A000A3FE002843D02C9840455DD1BDF8B40001
:1093B0000025013801283BD8BDF8B6002C2837D14C
:1093C00034462CAE4ECE42AD4EC5DDE93012DDE95D
:1093D000353C32AECDE9461246CE48F220304B93B2
:1093E00048ABBE46CEF6B85046C300224FF0FF331E
:1093F00042AD4C92A95C4B40002100BF1E4680EA62
:109400005303F70708BF7308072901F10101F5D3DA
:1094100001322C2AEED183EA0C000130B0FA80F040
:10942000450926467746BAF1000F04D120E0002511
:10943000BAF1000F1CD0BDF8020144F6911140F2C0
:10944000080A44F684548842C2F2000AC2F20004B8
:1094500027D1399907F5807016AAB84600F0BCFAF2
:1094600007468DB9002022E00025BAF1000FE2D1B5
:1094700040F2080A44F68454B8460027C2F2000AB3
:10948000C2F20004002DEDD0BDF8D60044F69111D3
:1094900088420BD12E9908F588506A4600F09CFA54
:1094A00005E0B8460127002DEED1DBE70120694633
:1094B00006F10C0E334607EA000601F10C021231E8
:1094C000012E03F1120637D12E9F399D45F2525CD1
:1094D000781B0128C5F6430CC0F28A80DDE93165AE
:1094E0000123C9F80860BDF8CE6027608AF8003013
:1094F000DDE92F37A9F81260BDF8B460C9E900377B
:10950000BDF8CC30C9F80C50BDF8D070BDF8D250C1
:10951000012E9DF8D460A9F81030A9F81470A9F8AC
:10952000165040F08D80002E18BF012689F8186073
:109530000026C9E902B689E04FB339AF8BCF89E87D
:109540008A00BDF8FA303D9DA9F81230BDF8E03030
:109550002060BDF8F800C9F80C50BDF8FC10BDF84B
:10956000FE509DF800710022012B8AF80020A9F816
:109570001000A9F81410A9F8165040F09480002F9C
:1095800018BF012789F81870C9E902B291E00028D4
:1095900000F033812EAF89CFC9E90037BDF8CE7016
:1095A000319EA9F81270BDF8B470206001208AF8CD
:1095B0000000329DC9F80860BDF8CC00BDF8D0307D
:1095C000BDF8D260012F9DF8D470C9F80C50A9F8ED
:1095D0001000A9F81430A9F8166040F0CE80002FD2
:1095E00018BF012789F818700027C9E902B7CAE037
:1095F00025603AAD27CDC9F80C5089E80700BDF8C1
:10960000FA00BDF8F810A9F81200BDF8E000BDF8A6
:10961000FC20BDF8FE309DF80051002701288AF893
:109620000070A9F81010A9F81420A9F8163070D10C
:10963000002D18BF012589F81850C9E902B76EE05E
:1096400006F00105C6F3400689F8185099F818503D
:1096500089F819602E409DF8D55089F81A604FF0AE
:109660000006B5B1BDF8D6509BB244F69110DB09A7
:10967000281A182B4FF00003BFB2B0FA80F088BF51
:109680000123FF094009182F88BF0126334003EA50
:10969000000600980123604589F81B6089F81C309A
:1096A00000F0A080A9E007F0010289F81820C7F3B4
:1096B000400299F8183089F819201A409DF80131B4
:1096C00089F81A204FF00002B3B1BDF8023180B220
:1096D00044F69117C009DB1B18284FF0000089B22F
:1096E000B3FA83F388BF0120C9095B09182988BF31
:1096F0000122104000EA030289F81B20169945F266
:109700005252C5F643020120914289F81C0074D1DF
:1097100030E005F00100C5F3400789F8180099F81A
:1097200018009DF8013189F8197038404FF0000792
:1097300089F81A00B3B1BDF8020189B244F6911359
:10974000C909C01A18294FF0000192B2B0FA80F08E
:1097500088BF0121D2094009182A88BF0127394052
:1097600001EA000716980121604589F81B7089F805
:109770001C1042D17246314634E007F00106C7F3AF
:10978000400789F8186099F8186089F8197037400F
:109790009DF8D56089F81A704FF00007B6B1BDF892
:1097A000D66080B244F69115C009761B18284FF098
:1097B00000009BB2B6FA86F688BF0120DB09760965
:1097C000182B88BF0127384000EA060789F81B706C
:1097D000009B45F25257C5F643070120BB4289F86A
:1097E0001C000AD110684022C9F8200009F12400A9
:1097F000FEF72FFD4DB0BDE8F08F4DB0BDE8F08F06
:109800002DE9F04F83B00029029100F0948043F2DB
:10981000A865C2F20005D5F820904CF2765A4FF0B8
:10982000FF3E0026C0F6010A4FF0FF314FF0FF3B2C
:109830004FF0FF3C4FF0FF32019100BF1AF80630A5
:1098400029FA03F7FF070BD005EB830838F8247FCC
:10985000B84207D1B8F80230029C012723801AE0F1
:10986000042718E02C46BCF1000F654648BF1D4692
:10987000002A4CBF1A46AC46874207D900275946F2
:109880009B46BEF1000F48BF9E4603E000275946A5
:109890009B460193254647F00403042B40F08D803E
:1098A0000136102ECAD1BCF1000F29D4DDE90134F4
:1098B000002B54BF1A46E646BEF1000F44BF0A46CD
:1098C000DE4605F1240101EB8E0301EB820631F83F
:1098D0002E7031F8222059887588801A491BBA1ACF
:1098E00081FB000102EBD27300294FEA63074FEAC4
:1098F000E27324D4C01941EBE771FEF766FC29E05E
:10990000EA7E012A17D1AA8A2B8AE98A6D8AC01AAF
:10991000491BD21A029C81FB000102EBD273002981
:109920004FEA63074FEAE27328D4C01941EBE771AD
:10993000FEF74BFC2DE0002003B0BDE8F08FFE17D2
:10994000381A66EB0101FEF740FC40424FF000027E
:1099500062EB0101401951F1000140F6FF7248BF6E
:10996000002021EAE171831A71F100014FF000013A
:10997000B8BF0121002908BF10461DE0FE17381AA4
:1099800066EB0101FEF721FC40424FF0000262EB62
:109990000101421940F6FF7041F10001131A71F103
:1099A00000034FF00003B8BF0123002B1CBF10467B
:1099B0000B46002B48BF00202080012003B0BDE8EB
:1099C000F08F00000F288FBF00204CF28651C0F6A8
:1099D000010131F8100070472DE9F04FBFB028AFFA
:1099E0001446894639465C2211F07EFB002800F0BF
:1099F000EC80289D681C17D0BDF8A460052E1AD1F4
:109A000028A920465822FEF724FC2046FFF7B8FB81
:109A1000002800F0DA80A068A0EB0900B0FA80F01E
:109A200040093FB0BDE8F08F4FF0FF3020600120CB
:109A30003FB0BDE8F08F0DF15C0840464421FEF7D1
:109A40002FFC042E4FF000005AD0032E40F004816A
:109A500002AF28A938465422FEF7FBFB029845F2D4
:109A60005252C5F643025040BDF80E20049992B2FE
:109A700082F05402104381EA09010843DDF858E0FE
:109A8000B0FA80F04FF0000A4FEA501CCDF858A011
:109A900073D148F22031BDF814B0BDF816A0CEF64F
:109AA000B8514FF0FF320023F85C4240002000BF65
:109AB000164681EA5202F50708BF7208072800F12E
:109AC0000100F5D30133542BEED12CABD5430FCB92
:109AD00017AE0FC6DDE9300132AFCDE91B01CFCFA4
:109AE00020931F923B9A38AB1E911D900BCB269270
:109AF00023AA229721960BC2BCF1000F40D164E04B
:109B000045F252522A993E9BC5F6430295423E9039
:109B100040F0A280BDF8A6205C2A40F09D80494517
:109B200040F09A80DDF8ACB0B0EB5B4F40F0948031
:109B300048F22030BDF8B0A0CEF6B8504FF0FF315B
:109B400000220193BB5C5940002300BF0E4680EA0F
:109B50005101F50708BF7108072B03F10103F5D385
:109B600001325C2AEED1CD4307F1120117A844223D
:109B7000FEF76FFBDDF804E002E0BCF1000F24D03B
:109B800075454FF0000067D144F691118A4563D1C5
:109B900020465821FEF784FB45F252500521C5F6B8
:109BA0004300C0F2580142F6E86E4CF2865784E852
:109BB000030204F112010022C0F6020EC0F60107F2
:109BC0004FF0010CA4F810A00EE000203FB0BDE85B
:109BD000F08F336841F82030E3680CFA00F0184346
:109BE000E0600132112A19D02BFA02F0C007F8D038
:109BF00038F8220000284FF000002DD008EB820634
:109C00007388B0EB133F27D13EF8123037F810506D
:109C1000AB42DED001301028F8D1E2E748F2203222
:109C20004FF0FF300021CEF6B85200BF635C5840C1
:109C3000002300BF074682EA5000FE0708BF7808ED
:109C4000072B03F10103F5D301315829EED1C043AD
:109C500060652046FFF794FA3FB0BDE8F08F000042
:109C6000002848D0016844F24C12C5F643029142E4
:109C700041D18188013901293DD80146C0882C286D
:109C80004FF0000018BF7047F0B58BB091E80C5052
:109C900001F110078DE80C5001F1200C9CE80C102C
:109CA000F0CF48F22031CDE908234FF0FF32EE46E5
:109CB000CEF6B851CDE90445CDE906670A9000BF5C
:109CC0001EF800305A400023144681EA5202E5078C
:109CD00008BF6208072B03F10103F5D301302C28DC
:109CE000EED182EA0C000130B0FA80F040090BB0EE
:109CF000BDE8F040704700207047000010B543F207
:109D0000A864C2F2000420466421FEF7C9FA44F2B6
:109D10004020C0F20F002060A06010BD2DE9F04F80
:109D2000C3B040F2100946F6DE30C2F20009C0F6B8
:109D3000020038AC48F22036C9F8000020462C2139
:109D4000CEF6B856FEF7ACFA44F24C1044F68458FE
:109D5000C5F64300C2F2000838900220D8F800107F
:109D600043F2A86BC0F22C00C2F2000B39904D1CDC
:109D70009BE80F000DF1EC0C8CE80700BBF810001D
:109D8000BBF81610ADF8FC00DBF81200ADF80211BC
:109D9000CDF8FE009BF818009BF819109BF81B20CB
:109DA00061F341008DF8040144F69110ADF806010D
:109DB00000204FF0FF313A953E938DF805214290F7
:109DC000225C5140002200BF0B4686EA5101DF07AA
:109DD00008BF5908072A02F10102F5D301302C28E7
:109DE000EED1C8430DF15C0A429050465821FEF76F
:109DF00057FA45F25250C5F6430017900520DBF89C
:109E00002070C0F25800189044F69110CDE919570F
:109E10000AF11205ADF86C000BF12401284640222E
:109E2000FEF717FA4FF0000CBCEB174F6FD14CF256
:109E3000765E4FF0FF30C0F6010E00221EF80230B1
:109E400027FA03F4E40713D035F8234074B105EB87
:109E500083014988BCEB113F08D1002803D435F8B1
:109E600020108C4202D9002404E000BF012400E04D
:109E70000424034644F00400042848D10132102A87
:109E80001846DBD14FF0FF30002100BF1AF8012047
:109E900050400022034686EA5000DF0708BF5808FA
:109EA000072A02F10102F5D301315829EED1C0434E
:109EB0002C9011F013F910B911F050F898B340F24A
:109EC000080AC2F2000A9AF800604EF20004C0F2DA
:109ED000FF14002E08BF04F58054204610F0BAFE8F
:109EE000F8B144F4807517A92846582211F0B2FA47
:109EF000D8B101A92846582211F0F6F8B8B117A830
:109F000001A95822FEF7F8F998B141A003E046F6FE
:109F10008C50C0F60200C9F80000002043B0BDE834
:109F2000F08F29A0F7E723A0F5E72CA0F3E732A0F4
:109F3000F1E701A8FFF724F9B0B138A920462C2297
:109F400011F088FAA8B12DA920462C2211F0CCF8E6
:109F5000A0B138A82DA92C22FEF7CEF998B146F66B
:109F6000A150C0F60200D6E746F6DB50C0F602006C
:109F7000D1E746F67250C0F60200CCE746F65950DB
:109F8000C0F60200C7E72DA8FFF76AFE68B1B6FA6F
:109F900086F040093A998AF800000120C8F80010BC
:109FA0008BF81C0043B0BDE8F08F46F6C050C0F6F9
:109FB0000200B0E7464C4153485F494E49545F4662
:109FC00041494C4544000000464C4153485F4552CE
:109FD0004153455F4641494C45440000464C41537E
:109FE000485F43555256455F57524954455F464175
:109FF000494C454400000000464C4153485F4355DE
:10A000005256455F524541445F4641494C454400E4
:10A01000464C4153485F43555256455F5245414473
:10A020004241434B5F4D49534D415443480000006A
:10A030002DE9F0479AB043F2A864C2F20004054645
:10A0400001A821466422FEF704F9A76843F2C05133
:10A050006FF07400C9F29E5146F6813244F684587E
:10A0600040F20809C7FB0510C2F63C32C2F20008F4
:10A07000C2F20009891AD8F800A099F800606FF0C0
:10A08000E80188410FD243F2A860C2F2000001A9A2
:10A090006422FEF7DEF80020C8F800A089F800600E
:10A0A0001AB0BDE8F0874BF6C05287FB0501CFF62A
:10A0B000F0724FF0FF33FEF788F8A7F52A2142F23D
:10A0C000C072A1F56661C0F209029142DBD800F5C9
:10A0D000F42144F2402201F59071C0F20F02914246
:10A0E000D1D8E0600120217E60760020A176207723
:10A0F000FFF714FE014601200029C4D0D0E700007C
:10A10000F0B599B043F2A864C2F2000416460F46B7
:10A110000546684621466422FEF79BF8102D06D3BB
:10A1200040F21000C2F2000029A101604DE004EBF2
:10A1300085008784C6840120216AA84008434FF027
:10A14000000CBCEB104F20622ED14CF276524FF037
:10A15000FF36C0F601020023D75C20FA07F1C907D9
:10A1600014D004EB870131F8245F6DB14988BCEB52
:10A17000113F09D1002E04D404EB8601898C8D4255
:10A1800002D900253E4602E0012500E0042545F005
:10A190000401042908D10133102BDDD1FFF7BEFDE6
:10A1A00058B1012019B0F0BD40F2100046F68C51B4
:10A1B000C2F20000C0F60201016043F2A860C2F2E0
:10A1C000000069466422FEF744F8002019B0F0BD93
:10A1D000504F494E545F494E44455800A0F52A223D
:10A1E00042F2C173A2F56662C0F209039A4201F518
:10A1F000F42303F5907C44F241234FF00002C0F2B7
:10A200000F0338BF01229C454FF0000338BF0123E4
:10A210001A40012A4FF0000C0BD143F2A863C2F29E
:10A220000003C3E90201197E01205876997683F86C
:10A230001CC01046704700008446B0F5486F4FF0D0
:10A2400000001CD3B2F5FA4F19D8994217D994459A
:10A2500028BF704710B543EA010E0024B4EB1E3F3F
:10A260000BD143F2A864C2F200040120A4F810C08C
:10A270006182A282E382A4F81B00BDE8104070470F
:10A28000A0F52A2242F2C173A2F56662C0F2090368
:10A290009A424FF0000201F2DC5C40F6B93338BF5D
:10A2A00001229C454FF0000338BF01231A40012AC8
:10A2B0004FF0000C0BD143F2A863C2F20003C3E9D4
:10A2C0000001597E01201876997683F81CC010464B
:10A2D0007047000040F29C30C2F2000003F064BB03
:10A2E00040F2E030C2F2000003F05EBB40F22440D6
:10A2F000C2F2000003F058BB2DE9F04FADF20C4D57
:10A30000DDF834B4DDF830849A4617460E468146AF
:10A3100001E000BF013630782028FBD00928F9D0B1
:10A320003046FDF7D4FF012806EB00010BDB0846A1
:10A3300003E000BFB042014606D910F8012D202AE3
:10A34000F8D0092AF6D00846002505703078002894
:10A3500001F0948008AC2046314640F2BF12FDF770
:10A36000AAFF9DF820008DF8DF5140B1013C00BFED
:10A37000FDF769FF04F8010F60780028F8D108980C
:10A3800044F65011C2F24401884200F0EC800FF60E
:10A39000C06108A80A22FDF7AFFF002800F0FF8087
:10A3A00009F0ACFF002847D0089844F25351C2F29C
:10A3B0005401884200F0288146F2FD61C0F6020196
:10A3C00008A80322FDF798FF002800F01D810FF672
:10A3D0008C6108A80822FDF78FFF002800F0148187
:10A3E00046F69201C0F6020108A80922FDF784FF93
:10A3F000002800F0098146F66821C0F6020108A88D
:10A400000A22FDF779FF002800F0FE8046F6701161
:10A41000C0F6020108A80722FDF76EFF002800F031
:10A42000F38046F21271C0F6020108A80622FDF779
:10A4300063FF002800F0E88010F0BAF900B346F29C
:10A44000FD61C0F6020108A80322FDF755FF0028B0
:10A4500000F0228146F69201C0F6020108A8092206
:10A46000FDF74AFF002800F0178146F66821C0F684
:10A47000020108A80A22FDF73FFF002800F00C8126
:10A4800046F2FD61C0F6020108A80322FDF734FF81
:10A49000002800F0218146F60511C0F6020108A847
:10A4A0000522FDF729FF002800F07F8146F677118D
:10A4B000C0F6020108A80522FDF71EFF002800F0E3
:10A4C0006D810FF6A45108A80922FDF715FF002899
:10A4D00000F0648146F63621C0F6020108A8072282
:10A4E000FDF70AFF002800F018820FF6885108A82F
:10A4F0000B22FDF701FF002800F00F820FF68051BC
:10A5000008A80522FDF7F8FE002800F006820FF6E5
:10A51000785108A8DAAA01F015FB78B90FF6705146
:10A5200008A8DAAA01F00EFB40B90FF6705108A88E
:10A53000DAAA01F007FB002800F0B485DA9847F6A4
:10A54000015148F67E72411ACFF6FF72914200F235
:10A55000A18446F6F02146F6D922C0F60201C0F6E3
:10A56000020200F088BF99F8970D012862D199F88E
:10A57000940DB9F8902D8DF8940244F64D70C4F204
:10A580004450CDF8990244F24410C5F643700027B8
:10A590000926CDF89502A5AB4846032194E082AE8A
:10A5A0003046FEF763FE46F64521C0F6020108A8D4
:10A5B0000E22FDF7A1FE002854D046F2D86108AC67
:10A5C000C0F6020120460E22FDF796FE002840F05C
:10A5D000B28104F10D0700BF17F8014F202CFBD00A
:10A5E000FDF724FE0068005D202840F0A481A5A9A5
:10A5F00038460A22FDF7CEFFA59900BF0A78202A27
:10A6000040F0E2800131F9E799F8970D01281CD15B
:10A6100099F8940DA5AC46F67C718DF89402601CF7
:10A62000C0F602011122FDF714FEB9F8902D0027A3
:10A63000122646E046F61B0746F2CD32C0F6020768
:10A64000C0F602020FF6644370E246F67C77C0F66D
:10A65000020746F2CD3246F69523C0F60202C0F656
:10A66000020363E299F8970D012840F081800520EC
:10A670008DF894028A989DF82412CDF89502102046
:10A68000B9F8902D8DF899128DF89A0200270726B7
:10A69000A5AB4846072117E099F8970D012870D11E
:10A6A00099F8940DA5AC46F6A4718DF89402601C3F
:10A6B000C0F602011322FDF7CCFDB9F8902D00275A
:10A6C0001426484603212346CDE9006702F012F91B
:10A6D0000DF20C4DBDE8F08F46F60221C0F60201E6
:10A6E00008A80A22FDF708FE002800F0928046F62E
:10A6F00016310DF25B37D7AEC0F6020108A8D9AA11
:10A70000D8ABCDE90067FDF713FE032840F0B48015
:10A7100078A80EF00DFE43F63464C2F200042068FF
:10A72000002818BF484540F09B8209F029F900280D
:10A7300000F0B48299F8970D012840F0558399F8FC
:10A74000940D8DF8680344F25350C5F25330CDF8A0
:10A75000690344F64970C5F64E70CDF86D0344F2B6
:10A760004130C4F65410CDF8710344F2565065E3FD
:10A770008A9B9DF8247246F27E22C0F60202DAAC71
:10A78000D5E146F6A47746F2CD3246F62F13C0F651
:10A790000207C0F60202C0F60203C7E1484602F013
:10A7A00007F80DF20C4DBDE8F08F46F6051146F6A0
:10A7B0001C12C0F60201C0F60202484601F0D8FEA3
:10A7C0000DF20C4DBDE8F08F002A40F0B38099F8EF
:10A7D000971D0F28D99040F2F281002900F09C8249
:10A7E00099F8940DB9F8902D8DF8940244F64960CB
:10A7F000C4F24450CDF8950245F65870C5F6307055
:10A80000CDF8990243F23150ADF89D0200270B2696
:10A81000C1E69BA809F0A4F8DDE99B739DF87D6271
:10A8200046F6823282ADC0F6020228464021CDE9CA
:10A83000007611F0FDFA99F8970D012840F0B281E9
:10A8400099F8940D82AC8DF868032046FDF73FFD22
:10A8500085B2DAAE701CA02D28BFA02521462A465D
:10A86000FDF7F7FCB9F8902D6F1C00254846022132
:10A870003346CDE9007529E746F2B76108ADC0F669
:10A88000020128460822FDF737FD002800F0D68196
:10A8900046F60D01C0F6020108A80722FDF72CFDBF
:10A8A000002800F01E8246F60431C0F6020108A816
:10A8B0000922FDF721FD002800F09B8246F6AF211A
:10A8C000C0F6020108A80922FDF716FD002800F0D5
:10A8D000208399F8970D012840F0828399F8940D10
:10A8E000B9F8902D8DF8680345F25530C5F64570DE
:10A8F000CDF8690345F24670C5F25F30CDF86D03BF
:10A9000044F25410C5F25450CDF8710353208DF821
:10A91000750300270E26DAAB3EE600264846394688
:10A9200052464346CDE900B602F052F80DF20C4D06
:10A93000BDE8F08FA59146F6F111C0F6020108A816
:10A940001122FDF7D9FCB8B346F69011C0F602010A
:10A9500008A80F22FDF7D0FC002852D009F010F80B
:10A9600020B90FF025FF002800F0EF8099F8970D2F
:10A97000012840F0CA8099F8940DB9F8902D8DF80F
:10A98000940244F64640C5F24130CDF8950245F6B2
:10A990004870C5F24250CDF8990245F65310C5F201
:10A9A0005F20CDF89D0245F24540C5F65210CDF826
:10A9B000A10200271126EEE599F8970D012872D122
:10A9C000A5A809F0D9FB09F099FC43F28161C2F214
:10A9D000000109788DF86C0208468DF86D12FEF7BB
:10A9E000F1FFBDF89612BAF1000F4FF00004ADF878
:10A9F0006E02ADF8701200F0BD80BAF83400010AA2
:10AA0000BAE0002000240FF069FB09F017FB43F2C5
:10AA10009465C2F20005287801281FD109F06EFC68
:10AA2000E0B99BA80EF084FCA5A809F0A5FB9DF851
:10AA3000740298B99DF8990280B943F28866C2F20F
:10AA4000000630880FF060FC70880FF01DFB43F2A9
:10AA500084610020C2F200012870086099F8970D07
:10AA600043F28461C2F2000101280C6052D199F8CE
:10AA7000940DB9F8902D8DF8940245F24F50C5F21F
:10AA80005400CDF8950245F25540C4F65F70CDF8FC
:10AA9000990244F24660ADF89D0200270B26A5AB53
:10AAA0004846022110E69BA809F066FB09F026FC47
:10AAB00043F28161C2F200010F7804463846FEF786
:10AAC00081FF0794BDF86EB2BAF1000F064614BFBD
:10AAD000BAF834804FF00008504609F089FA9DF822
:10AAE00070120446084609F01FFB0546049446F21E
:10AAF0001542A5AC079BCDE90076CDE902B8C0F6BA
:10AB000002022046B021059514E046F69077C0F683
:10AB100002079EE546F63C7746F2B53246F69F13AD
:10AB2000C0F60207C0F60202C0F60203A5AC20463A
:10AB3000A021009711F07CF948462146002202F03E
:10AB4000A3F90DF20C4DBDE8F08F09F0D7FB43F2ED
:10AB500084640028C2F2000453D02068814550D09C
:10AB600046F6952146F6C122C0F60201C0F6020261
:10AB700000F081BC002000218DF8720250468DF853
:10AB8000731209F035FA8DF874029DF89802B9F83D
:10AB9000902D0A278DF875029BAB48460921CDE917
:10ABA000007493E546F2B53246F63323DAACC0F6CC
:10ABB0000202C0F602032046A0210095BAE7002950
:10ABC00000F0B7808DF89402C0B2FEF7FBFE8A99C0
:10ABD000D99AADF8950221FA02F000F0010006EBD7
:10ABE0008201496A8DF897029DF82402B9F8902DE8
:10ABF000A6918DF89C0200270926A5AB484608219E
:10AC000062E546F2EC61C0F6020108A8D9AA00F09C
:10AC100099FF002800F0B18078A809F0ADFA9DF8FE
:10AC2000E401002800F0AD8146F69F21C0F6020144
:10AC300046F6AE12C0F6020200F01DBC43F63460C8
:10AC4000C2F200000068484500F0018199F8970DB4
:10AC5000012800F0DB8046F64877C0F60207F2E1F3
:10AC600099F8970D012840F0BA8099F8940DB9F839
:10AC7000902D8DF8680344F64C10C4F64E30CDF894
:10AC8000690344F25F20C5F25530CDF86D035920B9
:10AC90008DF8710300270A26DAAB7DE4B8F1000FC6
:10ACA00008D09DF8E801C00704D198F805000128F4
:10ACB00040F0518199F8970D012840F0028199F8F0
:10ACC000940DDAAC46F628718DF86803601CC0F666
:10ACD00002011222FDF7BDFAB9F8902D00271326C4
:10ACE000EFE443F63460C2F200000068484500F02B
:10ACF000248199F8970D012800F0888046F648775E
:10AD000046F2CD3246F61403C0F60207C0F6020240
:10AD1000C0F60203DAAC0AE746F6F46746F2CD3233
:10AD200046F65323C0F60207C0F60202C0F602033D
:10AD3000FCE6C1B204460846FEF744FE8A99D99A59
:10AD4000074621FA02F006EB82018A8CC98C9DF835
:10AD5000243200F00100CDE9010246F2F242DAAD00
:10AD6000CDE90313C0F602022846A021234600972E
:10AD700011F05EF848462946E0E646F23B71C0F61F
:10AD8000020108A812224FF6FB75FDF7B5FA00285C
:10AD900000F0B38146F21871C0F6020108A8122231
:10ADA000FDF7AAFA002800F0488146F20171C0F6CA
:10ADB000020108A81122FDF79FFA002800F09C81EB
:10ADC00046F22A71C0F6020108A81122FDF794FA92
:10ADD0000525002818BF012018BF00258EE146F682
:10ADE000B877C0F6020770E046F61877C0F602079B
:10ADF0006BE043F63460C2F200000068484500F0A2
:10AE00000D8199F8970D012840F0278199F8940D4C
:10AE10008DF8680344F64C10C4F64E30CDF8690343
:10AE200044F65F60C5F24F40CDF86D0344F65F70A5
:10AE3000C4F65760CDF8710345F24520B9F8902D5E
:10AE4000ADF8750300270F26DAABFFF7A5BB05F1B8
:10AE50000804D5A920460A22FDF79CFBD59EA642F0
:10AE60003DD0317820293AD10546701CFDF72FFAE4
:10AE7000D99030B110F0010103D1B0F5C07F40F29C
:10AE8000178246F24D7146F63512C0F60201C0F641
:10AE90000202F0E280B20FF037FA002800F0AC8036
:10AEA000DA9B46F6F622A5ACC0F602022046402107
:10AEB00010F0BEFF46F6F021C0F6020148462246D9
:10AEC0007CE446F62877C0F6020746F2CD3246F615
:10AED0006013C0F60202C0F60203DAAC27E699F866
:10AEE000970D012840F0AB8099F8940DB9F8902D9A
:10AEF0008DF8680344F64670C4F65250CDF86903E5
:10AF000045F24140ADF86D0300270726DAABFFF7A5
:10AF100043BB08F041FC002800F0AD8043F63460EC
:10AF2000C2F200000021016046F6B82146F2E47248
:10AF3000C0F60201C0F602023FE408F0E3FC46F668
:10AF40001401C0F60201002800F09E8046F27D72D6
:10AF5000C0F6020231E4D998DDE9D72108F086FC79
:10AF6000002800F09680C4F800900EF0C7F946F66D
:10AF7000601146F66C42C0F60201C0F60202FFF70D
:10AF80001CBCD9980F2840D8C0B2FEF71BFD08F0B2
:10AF9000B9FDD0B3D99843F28165C2F2000528709B
:10AFA00043F28860C2F20000C4F800900EF0C0F9CD
:10AFB00043F294612878C2F2000101220A70FEF780
:10AFC00001FD0FF0A1F901200FF088F846F69F214E
:10AFD00046F25B72C0F60201C0F60202FFF7EDBB5B
:10AFE00046F6587746F2CD32C0F60207C0F60202A6
:10AFF0000FF6AC03DAAC9AE546F6F021C0F6020192
:10B0000046F60402C0F6020235E246F69F2146F6F5
:10B010007C22C0F60201C0F602022CE208F0E6FB38
:10B0200046F60D31C0F60201002800F0BC8046F65D
:10B030000A12C0F60202FFF7C0BB04355DE046F617
:10B04000EE57C0F6020746F2CD3246F24D73C0F617
:10B050000202C0F60203DAAC69E546F6487746F22A
:10B06000CD3246F60D33C0F60207C0F60202C0F636
:10B070000203DAAC5BE546F6B82146F2BA72C0F6D6
:10B080000201C0F60202F6E146F2D072C0F60202F8
:10B09000F1E146F6601146F62402C0F60201C0F660
:10B0A0000202E8E10FF2887108A8DAAA00F04AFD6E
:10B0B00078B90FF2847108A8DAAA00F043FD40B90C
:10B0C0000FF2807108A8DAAA00F03CFD002800F019
:10B0D0003E81DA9841F641714EF22212411ACFF6C2
:10B0E000FF7291426DD846F64011C0F6020146F655
:10B0F0002D02C0F60202BEE101250020B0B346F2E7
:10B10000C561C0F6020108A8D9AA00F01BFDE0B392
:10B11000504608F06DFF00284AD0D9984FF6FF71CD
:10B120000138884244D278A809F026F80020002689
:10B130000EF0D4FF08F082FF01F0EEF943F28165D2
:10B14000C2F200052878BDF86413BDF8E22126603C
:10B15000FEF7D6FF002849D046F6330146F6EF0247
:10B16000C0F60201C0F60202FFF727BB28B2514623
:10B1700009F0A4FD46F67C11C0F6020170B146F25A
:10B180008672C0F60202FFF718BB46F6952146F616
:10B190000C22C0F60201C0F602026CE146F64E0235
:10B1A000C0F6020267E146F27972C0F6020262E17D
:10B1B00046F6330146F67202C0F60201C0F60202FC
:10B1C00059E180B20EF060FF002800F0B480DA9BF5
:10B1D00046F25572A5ACC0F602022046402110F09E
:10B1E00027FE46F64011C0F6020167E62C78D99D8D
:10B1F000BDF8E261FEF746F8CDE9005646F2E532C9
:10B20000A5AD0746C0F602022846A02123460297B4
:10B2100010F00EFE48462946002201F035FEFEF7EA
:10B2200031F846F29271C0F60201FDF757F830B9D5
:10B230000FF08EFE01464846002201F025FEFEF783
:10B2400021F846F633010246C0F6020113E100BFC1
:10B2500043414C20504F494E5420000043414C2064
:10B26000534554200000000047455420494E464FA6
:10B2700000000000474554205354415455530000EA
:10B2800053594E43000000005345542056200000FF
:10B2900053455420564F4C54200000005345542031
:10B2A000564F4C544147452000000000504944008F
:10B2B00042080020A5A9D99006EB40077C78A4F1AC
:10B2C0003003092B07D9A4F14103062B4FF0FF33BC
:10B2D00038BFA4F13703BC78A4F13007092F07D990
:10B2E000A4F14107062F4FF0FF3738BFA4F137070D
:10B2F000002B25D4B7F1FF3F22DD47EA03130B549F
:10B3000001308242D990D7D1A5A9284608F0A6FBE2
:10B31000002800F0A8809BA808F022FB9C9B82AC30
:10B320000FF280522046402110F082FD46F24D710E
:10B33000C0F60201C2E546F64011C0F602015FE622
:10B3400046F24D71C0F602010FF25C5293E046F6F0
:10B350007011C0F6020108A80722FCF7CDFF0028F3
:10B3600075D046F21271C0F6020108A80622FCF759
:10B37000C3FF00286BD046F6CE01C0F6020108A834
:10B380000822FCF7B9FF002800F08B800FF2C441BF
:10B3900008A80622FCF7B0FF002800F0828046F6DD
:10B3A000BF11C0F6020108A80622FCF7A5FF00287D
:10B3B00000F093800FF2A44108A80C22FCF79CFF38
:10B3C000002800F08A8046F66911C0F6020108A83C
:10B3D0000722FCF791FF002800F091800FF28841CE
:10B3E00008A80622FCF788FF002800F0888046F6AF
:10B3F000C601C0F6020108A80822FCF77DFF00285C
:10B4000000F087800FF2684108A80622FCF774FF5D
:10B4100000287ED00FF2604108A8DAAA00F092FB63
:10B42000002800F08080DA9B41F289304EF68A4194
:10B43000181ACFF6FF71884200F2B78046F6450130
:10B4400046F6D412C0F60201C0F6020213E008F07C
:10B4500097FAB8B146F6D52146F6A402C0F6020125
:10B46000C0F6020207E046F24D7146F62512C0F61C
:10B470000201C0F60202484601F060F90DF20C4DDF
:10B48000BDE8F08FB8F1000F1AD098F80400B8B1F9
:10B4900000200EF023FE46F6D521C0F60201FFF78C
:10B4A000C7BB00200EF01AFE08F0C8FD46F6D521F5
:10B4B000C0F6020146F6FC02C0F60202FFF77DB9B3
:10B4C00001200EF00BFE46F6D521C0F6020146F62D
:10B4D0007412C0F60202FFF770B900200EF0FEFDF4
:10B4E00008F0F8FC00200EF015FE46F6BF1146F6F7
:10B4F000D602C0F60201C0F60202FFF75EB941F2C1
:10B500009370012109F8001046F62111C0F60201DE
:10B51000DDE741F29370002109F8001046F6211191
:10B52000C0F60201C6E746F63D21C0F6020108A8B2
:10B530000822FCF7E1FE78B346F6FC21C0F60201D2
:10B5400008A80822FCF7D8FE30B346F60011C0F672
:10B55000020108A80522FCF7CFFEB0B346F6403141
:10B56000C0F6020108A882AA9BABFCF7E1FE022804
:10B5700066D1B8F1000F0AD0A5A80DF0D9FE9DF84C
:10B580009C0220B998F80500002800F0B78046F624
:10B59000EC21C0F60201F6E048465146424601F071
:10B5A00021F80DF20C4DBDE8F08F46F65232A5ACF5
:10B5B000C0F6020220464021C9F88C3D10F038FC4C
:10B5C00046F64501C0F6020178E440F24070C2F24E
:10B5D000000041F28471441801270DF5257A41F2EB
:10B5E00094780FF2B42B54F810EC54F80C1C54F867
:10B5F000082C54F8045CD4F800C034F8226C34F8F9
:10B60000200CA6A3301A012F08BF5B466FF39F20C2
:10B61000CDE9022546F23052CDE900E105905046D1
:10B62000C021C0F60202CDF810C010F001FC48465F
:10B630005146002201F028FC013F4444D3D01DE7CD
:10B6400046F62E31C0F6020108A882AA9BABFCF791
:10B650006FFE022811D1B8F1000F09D0A5A80DF096
:10B6600067FE9DF89C0218B998F80500002863D081
:10B6700046F63C11C0F6020185E046F66A31D7AFC6
:10B68000D8AEC0F6020108A878AAD9ABCDE9006708
:10B69000FCF74EFE042811D1B8F1000F09D0A5A87F
:10B6A0000DF046FE9DF89C0218B998F80500002898
:10B6B0006ED046F26671C0F6020164E046F6920171
:10B6C000C0F6020108A80922FCF716FE10B346F6E0
:10B6D0006821C0F6020108A80A22FCF70DFE002826
:10B6E00040D046F68B11C0F6020108A80522FCF7EF
:10B6F00003FE00286CD063A164A2BCE682989B99EB
:10B70000FEF7BEFD48B309F0F5F846F6EC21C0F6A9
:10B7100002011CE0B8F1000F09D0A5A80DF008FE49
:10B720009DF89C0218B998F80500002860D046F6EC
:10B730009B01C0F6020126E082989B99FEF74EFD20
:10B7400046F63C11C0F6020100283FF4D0AC46F2A8
:10B75000F872C0F60202FFF730B846F6EC21C0F6E8
:10B760000201C4E4B8F1000F09D0A5A80DF0E0FD76
:10B770009DF89C0218B998F80500002845D046F6B7
:10B780007221C0F6020146F62872C0F6020272E685
:10B7900078980022B2EB104F21D1D999B2EB114F1A
:10B7A0001DD1D89A0027B7EB124F18D1D79BB7EB12
:10B7B000134F14D180B289B292B29BB2FEF73CFD16
:10B7C00068B109F097F846F26671C0F60201BEE76B
:10B7D00046F29411C0F602014846FFF7AFB946F2AF
:10B7E000667146F6C512C0F60201C0F6020242E6D4
:10B7F000FEF794FA46F69B01C0F6020198B146F6B0
:10B800004F12C0F60202FEF7D8BFFEF777FA09F032
:10B8100071F846F6722146F6E412C0F60201C0F64F
:10B820000202FEF7CABF46F2A572C0F6020222E685
:10B83000534554204920000053455420435552524B
:10B84000200000005345542043555252454E542089
:10B85000000000004F55542030000000434C45418B
:10B8600052204641554C54004C4F472031000000B7
:10B870004C4F4720300000004C4F47205241544568
:10B8800020000000554E4B4E4F574E005553455F1C
:10B8900048454C50000000005553420042540000FF
:10B8A00046570000256C7500484558002DE9F043C7
:10B8B00081B040F24074C2F20004204642F6287182
:10B8C000FCF7EEFC40F28860C2F20000C4F89C0D68
:10B8D00040F2D460C2F2000042F23051605041F2B6
:10B8E0006C7040F2FF3121524FF43C50F021215254
:10B8F00025200221002203F0ADFD26200221002296
:10B9000003F0A8FD04F688554FF001084FF0280910
:10B9100041F294760127012485F80B8AC5F804903A
:10B9200002F098FB2860686905F11801012205F012
:10B93000EDFCB0FA80F040090440013F3544EBD003
:10B94000252003F075FD262003F072FD43F66010FC
:10B95000C2F200000121017008F012F880B940F233
:10B9600040750127C2F200050FF21C0841F29476DF
:10B9700028464146012201F087FA013F3544F7D0BD
:10B98000204601B0BDE8F0835B44454255475D2049
:10B990005553423D5553415254312042543D564730
:10B9A00036333238412F55534152543220313135DC
