:020000040800F2
:10000000900900204D010008550100085701000823
:10001000590100085B0100085D01000800000000B4
:100020000000000000000000000000005F01000868
:10003000610100080000000063010008CD190008FC
:1000400067010008670100086701000867010008F0
:1000500067010008670100086701000867010008E0
:1000600067010008670100086701000867010008D0
:1000700067010008670100086701000867010008C0
:1000800067010008670100086701000867010008B0
:100090006701000800000000000000006701000880
:1000A0006701000867010008670100086701000890
:1000B0006701000867010008670100086701000880
:1000C0006701000867010008670100086701000870
:1000D0006701000867010008670100086701000860
:1000E00067010008670100080000000067010008C0
:1000F0006701000867010008670100086701000840
:10010000670100086701000867010008670100082F
:10011000670100086701000867010008670100081F
:10012000670100086701000867010008670100080F
:10013000DFF80CD000F03CF8004800471D1E000816
:100140009009002080F3088862B608470648804777
:1001500006480047FEE7FEE7FEE7FEE7FEE7FEE7AC
:10016000FEE7FEE7FEE7FEE7D119000831010008CF
:10017000D2B201E000F8012B491EFBD270470022E9
:10018000F6E710B513460A4604461946FFF7F0FF96
:10019000204610BD30B504460020034600E05B1C3D
:1001A000934203D2E05CCD5C401BF8D030BD000030
:1001B0001CB509480090094801900546009C06E0DE
:1001C000E06840F0010394E8070098471034AC421F
:1001D000F6D3FFF7B1FF0000FC2000081C21000847
:1001E0002DE9F0439DB00DF12C0942F21408484668
:1001F0004821C4F20208FFF7C2FF01AC20462821C3
:10020000FFF7BDFF40F22310C4F2675048F80C0C12
:1002100048F6AB10CCF6EF5048F80C0C42F63B20F9
:10022000C0F6190048F8080C46F67F60C4F65D4039
:1002300048F8080C44F25100C5F67F50C8F878021F
:1002400042F26370C4F2CE6042F25401C8F8780200
:100250000020C0F600014FF6FF7200BF51F82030B9
:100260006FF002061D68AFB287EA1547974203D0C8
:100270000136F7D302E000BF49F82050974240F022
:10028000978001301228E9D1DDE90B0100226FF3DC
:100290001F3061F31B409DF83410C0F6FF72CDE9AA
:1002A0000101DDE90E0102F1805200F00F0061F35F
:1002B00014401099039011986FF3DF2102EA004077
:1002C00008440490DDE912011A9A6FF3DF2061F30C
:1002D0001A400590DDE914011B9B00F03F0061F31B
:1002E000154006901698189900F03F000790BDF849
:1002F0005C006FF31F3340EA0140BDF864100890C2
:1003000041EA024009901C9842F2C40160F31B4389
:1003100042F29C000022C0F60000C0F600010A93E1
:1003200003E000BF01320A2A0FD050F822301D68C6
:1003300051F8226054F822703540AF42F2D01D6867
:1003400025EA060637431F60ECE7D8F8EC2142F0B7
:100350000102C8F8EC2100BF00BF00BF00BF00BF12
:1003600000BF00BF00BF00BF00BFD8F8EC2122F0E3
:100370000102C8F8EC21002250F822301B6851F825
:10038000227054F822603B409E4211D101320A2A69
:10039000F2D1D8F8000040F08040C8F80000D8F84A
:1003A000000040F00040C8F800001DB0BDE8F08338
:1003B00001F022FD002804BF002070472DE9F04322
:1003C00081B0804601F002F9002847D04FF20004C6
:1003D000CFF6FF7404F5012001F00AFB00283DD0A0
:1003E00004F58054B4F5AE2FF4D348F2000947F673
:1003F000FF6400274FF0FF35C0F60009C0F2050486
:1004000007EB0906284631464FF4807200F06AFF78
:10041000054607F5002031464FF4807201F060FC7C
:10042000E0B1A74207F58077EAD9E843C8F80000B1
:100430006A464FF400204FF4B02100F073FF68B11A
:100440000098D8F80020904208D14FF400204FF4D3
:10045000B02101F0D7F801B0BDE8F083002001B071
:10046000BDE8F0832DE9F0418846A8B148F20004C8
:10047000054600274FF0FF30C0F60004EE1BB6F52E
:10048000807F28BF4FF480763919324600F02AFF6A
:100490003744AF42F2D301E04FF0FF3080EA08006A
:1004A0000130B0FA80F04009BDE8F08148F2000C5C
:1004B000C0F6000C4EF2100EDCE90001EFF31082E2
:1004C00072B6CEF2000E00224FF0FF33CEF80020BD
:1004D000CEF80420CEF808200EEB82040132082A60
:1004E000C4F87031C4F87032F6D14EF60452CEF230
:1004F00000024FF020631360C2F804C0FFF722FE31
:10050000FEE700002DE9F04F89B0002791460D4627
:100510008346CDE90777CDE90577CDE90377CDE9C6
:10052000017701F06FF818B100F060FA20B10027F0
:10053000384609B0BDE8F08F4FF4805048F2000A09
:1005400002900B20C0F6000A089002A801A9CDF87D
:100550001CA000F077F88046D0BBCDB340F28407F2
:100560000026C2F2000700BFAC1B4FF48070B4F548
:10057000807F28BF044638464FF48071FF22FFF782
:10058000F7FD06EB0B003946224601F0F9FA70B38D
:10059000002000BF395CFF2904D10130B0F5807F15
:1005A000F8D106E006EB0A0101203A4600F0AEF968
:1005B000E8B906EB0A0039464FF48072FFF7EAFD0E
:1005C000A8B9B8F1000F03D106F58076AE42CBD3BF
:1005D00000F090F9B8F1000FA9D100F0F7FF002862
:1005E000A5D028464946FFF73DFF0746A0E700F0A3
:1005F00081F99CE710B5026A04464FF400204FF4DD
:10060000B021FFF77FFF002804BF002010BD0521A7
:100610002046E160BDE8104001F074B8B0B5044672
:1006200000F0D2FA054640F20400C2F20000007861
:10063000611C18BF044400BF00F0C6FA401BA04272
:10064000FAD3B0BD2DE9F04F81B040F26C0BC2F28D
:10065000000B9BF80020012A03D1022001B0BDE865
:10066000F08F8846016805460120B1F5006F8BF8D0
:10067000000018DA02292ED0042940F0298142F224
:100680001004C4F2020400F09FFA00F57A7600BF6D
:100690002068C50348D500F097FAB042F8D3002D82
:1006A00000F1158146E02AD0B1F5805F40F010815D
:1006B00042F21007C4F2020700F086FA00F57A76DB
:1006C0003868C40352D500F07FFAB042F8D3002C4A
:1006D00000F1FD8050E042F21007C4F2020700F082
:1006E00073FA00F57A7600BF3868C4037AD500F053
:1006F0006BFAB042F8D3002C00F1E98077E042F2C7
:100700001007C4F2020700F05FFA00F57A7600BF26
:100710003868C40340F1A38000F056FAB042F7D322
:10072000002C00F1D4809FE048F211002060002DE1
:1007300000F1CD800020CBF80400606844F2213144
:1007400040F0040060604FF00060C1F234210160AD
:1007500000F03AFA00F57A752068C00340F1C180D4
:1007600000F032FAA842F7D30320BEE048F21100AD
:100770003860002C00F1AB804FF0FF30C8F800006B
:10078000D5E9054004EBC030844280F0A0804FF0F2
:10079000FF0900BF786840F480507860C4F800908A
:1007A00000F012FA00F57A7A3868C60306D500F030
:1007B0000BFA5045F8D3032004E000BF48F21100C3
:1007C000386000207968002E21F48051796000F1B2
:1007D0008580D5E9051204F5004401EBC2318C4255
:1007E000D8D375E048F211003860002C6FD44FF078
:1007F000FF30C8F80000D5E9014004EB0020844236
:1008000065D24FF0FF0A00BF0020CBF804007868E3
:1008100040F002007860C4F800A000F0D5F900F5BF
:100820007A7900BF3868C60306D500F0CDF948458F
:10083000F8D3032004E000BF48F211003860002024
:100840007968002E21F00201796047D4D5E90112C0
:1008500004F5807401EB02218C42D5D338E048F2D4
:1008600011003860002C32D44FF0FF30C8F800007F
:10087000D5E9034004EBC020844228D24FF0FF09A1
:10088000786840F400607860C4F8009000F09CF94B
:1008900000F57A7A3868C60306D500F095F9504518
:1008A000F8D3032004E000BF48F2110038600020B4
:1008B0007968002E21F4006179600FD4D5E9031224
:1008C00004F5006401EBC2218C42D9D300E0012081
:1008D00000218BF8001001B0BDE8F08FC8F800408F
:1008E000F6E748F2110020600020616821F0040161
:1008F0006160EDE742F21400C4F20200016841F0C9
:10090000004101600068C043C00F70472DE9F0430B
:1009100081B040F26C04C2F200042078012803D1B7
:10092000022001B0BDE8F08301200B06207002D048
:1009300001B0BDE8F08342F2140588469146C4F246
:10094000020500F041F900F57A7700BF55F8040C74
:10095000C60307D500F038F9B842F7D30320002EBC
:1009600007D53EE048F2110045F8040C0020002EA7
:1009700037D42868494640F001002860EFF3108022
:10098000EFF3108372B64246002303E004323F2B9C
:100990003B460AD251F8046B5F1C3F2F1660F5D11D
:1009A0002E6846F400262E60F0E780F3108800F0F1
:1009B0000BF900F57A7700BF55F8040CC60305D58E
:1009C00000F002F9B842F7D3032004E048F2110026
:1009D00045F8040C00202968002E21F0010129604F
:1009E000A6D40021217001B0BDE8F08342F20800D6
:1009F000C4F20200C168B1F1FF3FC4BF00207047DC
:100A000040F22311C4F26751016048F6AB11CCF6F5
:100A1000EF510160C068C00F704700000A68002AEB
:100A200008BF70472DE9F04F83B000F1200341F279
:100A30000006019300F13844C4F60006072340F293
:100A4000004E4FEAB425B04208BF0423C4F2010EA1
:100A5000042D38BF4FEAB42300244FF0010C0026C8
:100A6000002700930AE000BF0A68013732FA07F353
:100A700006F1040604F1020400F09C800CFA07FA67
:100A800012EA0A08F0D04A6842F01002122A16D17F
:100A90006FF00302DDF804C002EA57025CF802B00E
:100AA00006F01C030F25D1F810909D402BEA050598
:100AB00009FA03F32B434CF802304FF0010C0322E8
:100AC000036802FA04F54A686FEA050BAB4302F0CB
:100AD0000305A5402B43122A036013D80CFA02F336
:100AE00013F0061F0ED08368CD6803EA0B03A54000
:100AF0002B4383604368C2F3001523EA0A03BD4019
:100B00002B434360C3688D6803EA0B03A5402B4366
:100B1000D200C360A8D541F21803C4F202031A68D8
:100B20004FF6144A42F001021A601A68CFF6FF7AB3
:100B300002F001020292029A27F00302724452F874
:100B40000A9006F00C050F23AB4029EA030C009B2A
:100B500003FA05F545EA0C0342F80A30DEF8009086
:100B60004B6849EA0805DA0358BF29EA0805CEF8B8
:100B70000050DEF804909A0349EA080558BF29EAB4
:100B80000805CEF80450DEF80890DA0249EA0805B4
:100B900058BF29EA0805CEF80850DEF80C204FF0BF
:100BA000010C42EA08059B0258BF22EA0805CEF86C
:100BB0000C5059E703B0BDE8F04F70471823002AE6
:100BC00008BF2823C150704740F28810C2F20000CD
:100BD0000068704740F2040040F28811C2F2000041
:100BE000C2F2000100780A681044086070470000F3
:100BF00080B5042000F05EF8032000F005F800F056
:100C00002BF8002080BD0000B0B540F20402C2F213
:100C1000000240F200011278C2F200014FF47A7330
:100C20000968B3FBF2F20446B1FBF2F1084600F0AA
:100C300043FB072C4FF001050CD858B94FF0FF309B
:100C400021460022002500F009F840F20800C2F217
:100C5000000004602846B0BD7047000010B54EF695
:100C60000C5CCEF2000CDCF80030C3F3022E8EF0E8
:100C70000704032C28BF0324BEF104034FF0FF3EFA
:100C80000EFA04F438BF0023A14399400EFA03F38F
:100C90009A43114300F1604200F00F03490102F54D
:100CA0006442043B6344002848BF03F10C02117006
:100CB00010BD00004EF60C51CEF200010A684FF64E
:100CC000FF031A4060F30A2242F0806040F0FD709A
:100CD00008607047002804BF012070474168B1F5E3
:100CE000827F1CBF0021C1612DE9F047002585628C
:100CF00090F8551029B980F85450044600F052F885
:100D00002046022180F855100168C3680A68B3F5CF
:100D1000E06F22F040020A6098BF012543F40062B0
:100D2000B2F5706F4FEA053C1CBF00258562D0E923
:100D30000154D0E9042E05F4827A03F4006304F42C
:100D40000449534402F00208D0E906674B440EF010
:100D5000010E434406F40072046A734407F0380736
:100D6000856A1A4404F080043A4405F4005522438D
:100D70002A430A600422436A02EA164203F400434B
:100D800042EA0C021A444A60CA6922F40062CA614B
:100D900000210122816580F85520BDE8F047084612
:100DA00070470000704700002DE9F04381B0044611
:100DB00040681D461746B0F5827F0E4602D1A068F6
:100DC000002869D094F85400012803D1022001B012
:100DD000BDE8F0834FF0010984F85490FFF7F4FE6A
:100DE00094F85510012955D18046002E4FF001008E
:100DF00018BF002F00F08580042084F855000020E3
:100E0000A065A663A787E7872063A086E0862168A0
:100E1000C4E91100D4E902204B68B0F5E06F23F477
:100E2000805398BF03F58053B2F5004F4B6008D153
:100E300021680A6822F040020A600A6822F48042AF
:100E40000A6021680A68520603D40A6842F0400228
:100E50000A60E18FB0F5E06F2BD8002944D06E1CFA
:100E60000BE000BF007BA16B0870A06B0130A0639A
:100E7000E08F0138E087E08FB0B320688168C90750
:100E8000F0D1FFF7A1FE002EF5D0A0EB0800A8429C
:100E9000F1D327E0022034E0042084F855002046F6
:100EA000314632463B46009500F006F901B0BDE8F8
:100EB000F083C9B16E1C09E0C068A16B21F8020B78
:100EC000A163E08F0138E087E08F68B12068816816
:100ED000C907F1D1FFF778FE002EF5D0A0EB08008E
:100EE000A842F1D303200CE020462946424600F0F8
:100EF00069FC00281CBF2020A065A06D002818BF39
:100F00000120002184F8559084F8541001B0BDE808
:100F1000F08300002DE9F04381B0044690F85400BE
:100F2000012803D1022001B0BDE8F0834FF0010891
:100F30001D460F46164684F85480FFF745FE94F888
:100F4000551001295DD18146002F4FF0010018BFD7
:100F5000002E00F0A880032084F855000020A06532
:100F60002763A686E686A063A087E087A26831464D
:100F7000B2F5004FC4E9110008D12068026822F0E0
:100F800040020260026842F4804202602068026807
:100F9000520603D4026842F04002026062680139DE
:100FA000E368B2FA82F2B1FA81F152094909B3F564
:100FB000E06F41EA020126D931B137F8021BC16066
:100FC0002763E08E0138E086E08E002841D06F1C58
:100FD0000AE000BF216B31F8022BC2602163E08E72
:100FE0000138E086E08EA0B3206881688907F1D4DB
:100FF000FFF7EAFD002FF5D0A0EB0900A842F1D3DE
:1010000025E002204FE039B139780173206B0130BF
:101010002063E08E0138E086E08ED0B16F1C0AE0DC
:10102000216B09780173206B01302063E08E013859
:10103000E086E08E68B1206881688907F0D4FFF708
:10104000C3FD002FF5D0A0EB0900A842F1D3032087
:1010500029E020464FF4C0512A464B4600F0E8FBF9
:1010600068B9204629464A4600F056FC38B9204661
:101070004FF4C0612A464B4600F0DAFB28B1A06D60
:1010800040F02000A0652020A065A06838B90020AD
:1010900000902068C1680091806800900098A06D61
:1010A000002818BF0120002184F8558084F85410CE
:1010B00001B0BDE8F08300002DE9F04381B00446A3
:1010C00090F85400012803D1022001B0BDE8F0835C
:1010D00001201E4615460F4684F85400FFF774FDA4
:1010E00094F855108146012973D1002F4FF001006B
:1010F00018BF002D00F0D580002E00F0D28094F8AB
:10110000550004281CBF052084F855000020A06568
:10111000A563E687A6872763E686C4E911002068F1
:10112000A686E1684268B1F5E06F22F4805298BF6C
:1011300002F5805242600268520603D4026842F00F
:10114000400202606268731EB2FA82F2B3FA83F35D
:10115000DDF8208052095B09B1F5E06F43EA020136
:1011600046D931B137F8021BC1602763E08E0138E0
:10117000E086012608F10105E08E10B9E08F002815
:1011800072D02068816889070CD5E18E51B1012E9B
:1011900008D1216B002631F8022BC2602163E18E59
:1011A0000139E1868168C9070AD0E18F41B1C06881
:1011B000A16B012621F8020BA163E08F0138E087C3
:1011C000FFF702FD002DD7D0A0EB09004045D3D397
:1011D00048E06068B0F5827F08D104294FF0020032
:1011E0005FD1A16800293FF480AF5AE0022058E0A7
:1011F00039B139780173206B01302063E08E0138FA
:10120000E086012608F10105E08E08B9E08F58B3A9
:101210002068816889070DD5E18E59B1012E09D169
:10122000216B002609780173206B01302063E08E6A
:101230000138E08620688168C9070BD0E18F49B189
:10124000007BA16B01260870A06B0130A063E08FCA
:101250000138E087FFF7B8FC002DD5D0A0EB0900DE
:101260004045D1D303201CE020464FF4C0514246F4
:101270004B4600F0DDFA68B9204641464A4600F088
:101280004BFB38B920464FF4C06142464B4600F054
:10129000CFFA78B1A06D40F02000A0652020A065B5
:1012A0000120012184F85510002184F8541001B068
:1012B000BDE8F0830020F4E7411E0020B0EB116F81
:1012C0001CBF012070474EF21002CEF200025160A6
:1012D0004EF62351CEF20001E0230B7007219060FF
:1012E00011607047002A08BF7047B0B548F2203E31
:1012F0004FF0000CCEF6B85E11F80C3058400023C9
:101300008EEA5004C50708BF44082046072B03F1A6
:101310000103F5D30CF1010C9445EDD1BDE8B040CB
:10132000704700002DE9F047C0B081460020B0EBC7
:10133000596F36D18A46A1B3904692B3C9F1007174
:101340008A452ED848F220344FF0FF356F46CEF64E
:10135000B85400BF5646BAF5807F28BF4FF4807658
:1013600048463946324600F00BFCE8B1002000BF89
:10137000395C4D40002100BF2A4684EA5505D30759
:1013800008BF5508072901F10101F5D30130B0422A
:10139000EED1BAEB060AB144DCD1E843C8F800004C
:1013A000012040B0BDE8F087002040B0BDE8F087E4
:1013B000002804BF002070472DE9F04794B0044690
:1013C00000F0D8FB002800F080800AAD40F202084F
:1013D00044F655694FF4801029462822CFF203487D
:1013E000C5F6490900F0CCFBC8B30A984FF0000AD3
:1013F000484536D10B98012833D10E98404530D15D
:101400000D98083810F1070F2BD310986FF4B02106
:10141000084448F20701CFF6FA71884221D348F216
:1014200020324FF0FF300021CEF6B8526B5C5840AE
:10143000002300BF064682EA5000F70708BF700885
:10144000072B03F10103F5D301312429EED11399C0
:1014500048400130B0FA80F04FEA501A01E04FF0F6
:10146000000A41F200006D46C0F210002946282211
:1014700000F086FBC8B1009848454FF0000015D138
:101480000199012912D1049941450FD103980838D7
:1014900010F1070F09D306986FF4B021084448F201
:1014A0000701CFF6FA7188422DD200204AEA0001E6
:1014B000C9070AD0BAF1000F0BD020B10C980299DD
:1014C000401A002805DD0AA804E0002014B0BDE899
:1014D000F0876846D0E900E8D0E90237D0E9046532
:1014E000D0F818C0D0E90821C069C4E90821C4E9CE
:1014F00006C00120C4E900E8C4E90237C4E9046574
:1015000014B0BDE8F08748F220324FF0FF300021E0
:10151000CEF6B8526B5C5840002300BF074682EA03
:101520005000FE0708BF7808072B03F10103F5D32D
:1015300001312429EED1099948400130B0FA80F0F8
:101540004009B3E7016844F65562C5F64902914285
:1015500017D14168012914D101690222CFF2034257
:1015600091420ED1C168083911F1070F09D3816981
:101570006FF4B022114448F20702CFF6FA7291429A
:1015800001D20020704710B548F2203E4FF0FF31E5
:101590004FF0000CCEF6B85E10F80C20514000223F
:1015A0000B468EEA5101DC0708BF5908072A02F1F1
:1015B0000102F5D30CF1010CBCF1240FECD1406A0F
:1015C00048400130B0FA80F0400910BD48F20001F7
:1015D000C0F600010A6802F16040B0F5803F4FF0AC
:1015E00000000ED812F0070218BF704748680022AA
:1015F000A0F10061A1F50041B1F5B02F38BF012283
:10160000104070472DE9F047C2B082466FF40020C9
:101610001AEA000F4FF0000070D147F6F8738946C0
:101620000839C0F20503994268D890466946504689
:10163000082200F0A5FA002854D0009901F160407A
:10164000B0F5803F4FF0000058D811F0070155D198
:10165000019A48F20003C0F600039A424ED312F0FA
:1016600001074BD022F0010009EB030290424FF03A
:10167000000043D24146B0EB5A6F3AD1B9F1000FA6
:1016800037D0CAF10072914533D848F220354FF077
:10169000FF3402AECEF6B8554F46B9F5807F28BF6D
:1016A0004FF48077504631463A4600F069FAE8B187
:1016B000002000BF315C4C40002100BF224685EA7B
:1016C0005404D30708BF5408072901F10101F5D3D9
:1016D0000130B842EED1B9EB0709BA44DCD1E2439C
:1016E000012004E0002042B0BDE8F0870020414620
:1016F000FFE7511AB1FA81F14909084042B0BDE84B
:10170000F0870000002804BF0020704770B594B037
:10171000064600F02FFA00284CD00AA8FFF748FE32
:10172000002844F655604FF00102C5F649000C99B7
:10173000C6E9000218BF4A1C0220B260CFF2034083
:1017400048F2203230614FF0FF300021CEF6B8521F
:10175000735C5840002300BF054682EA5000EC0746
:1017600008BF6808072B03F10103F5D301312429D1
:10177000EED1B168C0437062C8074FF4801504BF52
:1017800041F20005C0F21005284600F031F988B199
:1017900028463146282200F0A3FA58B16946284667
:1017A000282200F0EDF928B1694630462822FEF7DC
:1017B000F1FC10B1002014B070BD6846FFF7C2FE06
:1017C00014B070BD70B5044640681546B0F5827F10
:1017D0000E460BD1A068B0F5004F02D0B0F5806F77
:1017E00004D12068016821F04001016020463146A3
:1017F0002A4600F091F828B1A06D40F02000A065C5
:10180000032070BD6068B0F5827F0FD1A068B0F58D
:10181000004F02D0B0F5806F08D120464FF4C06170
:1018200032462B4600F004F80028E5D1002070BDB8
:101830002DE9F04F83B04FF000091E4690460D464B
:1018400083468DF80790FFF7BFF9301A00EB0807C1
:10185000FFF7BAF940F20001C2F200010968232241
:101860005143090DDBF800A079430291DAF8081022
:1018700029424DD0064608F1010404E0DBF80000DF
:101880008068284217D0B5F5C06F05D19AF80C00D2
:101890008DF807009DF80700002CEFD0FFF794F9B2
:1018A000801BB8420AD202980299002808BF074656
:1018B000481E0290E2E74FF0000929E0DBE9000151
:1018C0004268B1F5827F22F0E00242600BD1DBF882
:1018D0000810B1F5004F02D0B1F5806F03D1016857
:1018E00021F040010160DBF82810B1F5005F07D15D
:1018F000016821F400510160016841F40051016068
:1019000001208BF8550000208BF854004FF003099C
:10191000484603B0BDE8F08FF0B581B015460E46DD
:101920000446FFF751F9281A8719FFF74DF940F2DD
:101930000001C2F200010968C1F3CB317943009183
:1019400021688968090602D4002001B0F0BD05466F
:10195000013603E0206880680006F5D5002EF9D036
:10196000FFF732F9401BB84207D2009800990028CF
:1019700008BF0746481E0090ECE7D4E90001426822
:10198000B1F5827F22F0E00242600AD1A168B1F590
:10199000004F02D0B1F5806F03D1016821F0400102
:1019A0000160A16AB1F5005F07D1016821F400511F
:1019B0000160016841F400510160012084F8550084
:1019C000002084F85400032001B0F0BDFFF702B9F5
:1019D00080B5FEF705FC4EF68850CEF20000016897
:1019E00041F4700101604FF0006140F8801C80BD3F
:1019F00001460020B0EB516F5BD140F28412C2F27D
:101A000000021278D20708BF7047F0B583B0642097
:101A10000E4600F019F9002847D040F20044C4F601
:101A2000000406208DF80B0020464FF48051002260
:101A30000027FFF7C3F840F21000C2F200000DF1DA
:101A40000B0101226423FFF765FA054620464FF497
:101A500080510122FFF7B2F83DBB21208DF806002E
:101A6000300E8DF80700300C8DF80800F02000EAE9
:101A700016208DF8090020464FF4805100228DF881
:101A80000A70FFF79BF840F21000C2F200000DF15F
:101A9000060105226423FFF73DFA054620464FF470
:101AA00080510122FFF78AF825B1002003B0BDE87C
:101AB000F040704741F2883000F0C6F8F6E70000C9
:101AC00070B582B040F200449F2040F28416C4F604
:101AD00000048DF807000020C2F200068DF8060011
:101AE000ADF80400307020464FF480510122FFF71A
:101AF00065F80120FEF792FD20464FF48051002248
:101B0000FFF75CF840F21000C2F200000DF107018F
:101B100001226423FFF7FEF930B120464FF48051D3
:101B20000122FFF74BF810E040F21000C2F2000073
:101B300001A903226423FFF737F9054620464FF435
:101B400080510122FFF73AF815B1002002B070BDB4
:101B50009DF80400FF3810F1FE0F4FF0000007D38E
:101B60009DF80610192903D1642000F06DF830703B
:101B700002B070BD40F28410C2F2000000787047DD
:101B80002DE9F04782B00027B7EB506F57D11446CC
:101B9000002A54D000290D461FBF40F28411C2F222
:101BA000000109785FEAC17149D0C0F100718C422F
:101BB00045D813218DF80310010E40F200488DF82E
:101BC0000410010CC4F600088DF80510010A8DF808
:101BD00006108DF8070040464FF480510022FEF7B2
:101BE000EDFF40F21000C2F200000DF103010522EA
:101BF0006423FFF78FF918B1B0FA80F0470918E0B5
:101C000040F210094FF6FF7AC2F200094FF6FF7654
:101C1000544538BF26464846294632466423FFF7D6
:101C2000C3F8B0FA80F14FEA511710B9A41B35443C
:101C3000ECD140464FF480510122FEF7BFFF3846F9
:101C400002B0BDE8F08700002DE9F04F81B040F20E
:101C5000004A0546C4F6000AFEF7B6FF40F2100738
:101C600006464FF0050BC2F200070DF103080DF117
:101C7000020900BF50464FF4805100228DF803B096
:101C8000FEF79CFF3846414601226423FFF742F9E4
:101C9000B8B93846494601226423FFF785F804465F
:101CA00050464FF480510122FEF788FF7CB99DF821
:101CB0000200C0070FD0FEF787FF801BA842D9D3D0
:101CC00005E050464FF480510122FEF777FF0020D7
:101CD00001B0BDE8F08F012001B0BDE8F08F000039
:101CE0002DE9F04F83B00027B7EB506F0ED11446AB
:101CF00062B10E4600291FBF054640F28410C2F2B1
:101D00000000007818BF5FEAC07003D1384603B006
:101D1000BDE8F08FC5F100708442F7D840F2004B67
:101D200040F21008C4F6000BC2F20008E8B2C0F599
:101D3000807A6420544538BFA246FFF785FF00280B
:101D400057D006208DF80B0058464FF480510022E2
:101D50000027FEF733FF40460DF10B0101226423FB
:101D6000FFF7D8F8814658464FF480510122FEF71C
:101D700025FFB9F1000FC9D112208DF80600280EF9
:101D80008DF80700280C8DF80800280A8DF8090046
:101D900058464FF4805100228DF80A50FEF70EFF8E
:101DA00040460DF1060105226423FFF7B3F8D0B9D0
:101DB0001FFA8AF2404631466423FFF7ABF8074624
:101DC00058464FF480510122FEF7F8FE8FB94FF4C8
:101DD000FA70FFF739FF60B15544B4EB0A0456447A
:101DE000A4D1012792E758464FF480510122FEF713
:101DF000E5FE00278AE700004EF60C50BFF34F8F38
:101E0000CEF200000168042201F4E061C0F2FA524F
:101E100011430160BFF34F8F00BFFDE78CB041F26B
:101E200034040027C4F202040597CDE90377CDE915
:101E30000177206840F2004840F0080020602068E8
:101E4000C4F6000800F008000B900B98206808F515
:101E5000806540F01000206020684FF4005100F0D1
:101E600010000B900B98284601224FF400590126D0
:101E7000FEF7A4FECDE9019601AE28463146CDE934
:101E80000377FEF7CBFD40464FF4805101224FF41B
:101E90008055FEF793FE404631460195FEF7BEFDA4
:101EA000FEF7A6FE42F2EC00C0F6000000785828CB
:101EB00040F080800597CDE90377CDE90177206870
:101EC00001A940F008002060206800F008000B9095
:101ED0000B9854F8180C40F4804044F8180C54F84F
:101EE000180C00F480400B900B984FF46040019068
:101EF000022002900490032005904046FEF78EFDDC
:101F000040F2100043F60001C2F20000C4F20001EA
:101F10004FF482724FF4E0634FF40076082580E8B6
:101F2000860007210762C0E90337C0E90576C5616D
:101F3000C0E90A71FEF7CEFE00283DD1FFF7C0FDD3
:101F4000002839D001AC2046FFF732FA0546FFF7EA
:101F50003DFB002D31D004990139062966D8DFE810
:101F600001F0041B61565A64640000285ED0DDE96C
:101F7000071205460020FFF745FB002857D004F163
:101F80002000FEF717FA002851D00220049001A883
:101F9000FFF7B8FB002849D00799089A0020FEF700
:101FA000B1FA00283ED00320049001A8FFF7AAFB55
:101FB00037E000BFFEE700BFFEE7B8B348F200021B
:101FC000C0F600024EF21003D2E90001EFF31087D1
:101FD00072B6CEF2000300274FF0FF361F605F603D
:101FE0009F6000BF03EB87050137082FC5F87061BC
:101FF000C5F87062F6D14EF60453CEF200034FF0EE
:1020000020671F605A60FEF79DF800BFFEE748B1E9
:10201000DDE9070103E028B109994FF4B020FEF78C
:1020200021FA30B901A8FEF7E5FA10B9FEE7002D54
:10203000FCD0FEF73BFA02E008C8121F08C1002AD4
:10204000FAD170477047002001E001C1121F002A39
:10205000FBD170471051FF1F1451FF1F1851FF1F74
:102060004851FF1F4C51FF1F0056FF1F0456FF1F12
:102070000052FF1F0452FF1F4051FF1F4451FF1F1A
:102080000852FF1F2051FF1F2451FF1F2851FF1F1F
:102090002C51FF1F3051FF1F3451FF1F08220240F7
:1020A0000C22024020220240282202402422024028
:1020B0001C2202402C220240102202401422024024
:1020C00018220240FF0FFF0FFF0000000F001F004B
:1020D000FF07FF1FFF07FF073F003F003F00000013
:1020E000FFFFFFFFFFFFFFFFFF0FFF0F58494E5F8E
:1020F000504F5745525F424C5F5631002021000837
:1021000000000020100000003620000830210008E8
:102110001000002080090000462000080000000098
:1021200000127A000100000008000000000000001A
:0400000508000131BD
:00000001FF
